:040000005FEF18F0A6
:10080000003E54656D702E20416D6269656E7465A1
:100810003C0054203D20252E3266204300696E6640
:10082000006E616E0000000E0001816F40C084F018
:1008300041C085F042C086F043C087F087BF25EFF6
:1008400004F023EF04F039EF04F0010E816F84C04F
:1008500001F085C002F086C003F087C004F0E1EC2F
:1008600018F001C084F002C085F003C086F004C017
:1008700087F0000E0001836F000E826FB3C071F02D
:10088000B4C072F08151D8B448EF04F04AEF04F0DC
:100890005EEF04F08151D8A450EF04F052EF04F061
:1008A00058EF04F0000E676F2B0E666F5CEF04F0DC
:1008B000000E676F2D0E666F66C081F084C001F078
:1008C00085C002F086C003F087C004F01BEC15F071
:1008D00001040210D8A46FEF04F071EF04F0A4EF4C
:1008E00004F000018151D8B478EF04F07AEF04F0FD
:1008F00083EF04F081C000F17107D8A07207000EE9
:10090000836F010E826F000E8225016E010E83211E
:10091000026E1D0E036E080E046EA3EC18F00001AB
:10092000FD0E7127FF0E72233EC012F03FC013F080
:10093000000E146E010E156E71C016F072C017F025
:1009400093EC16F00FEF09F084C001F085C002F0BF
:1009500086C003F087C004F01BEC15F001500210B4
:10096000D8A4B5EF04F0B7EF04F0D7EF04F000011E
:100970008151D8B4BEEF04F0C0EF04F0C9EF04F029
:1009800081C000F17107D8A07207000E836F010EBD
:10099000826F000E8225016E010E8321026E210EF0
:1009A000036E080E046EA3EC18F08FEF04F0000E37
:1009B0000001886F000E896F800E8A6F3F0E8B6F6B
:1009C000000E706F000E6F6F84C001F085C002F0E2
:1009D00086C003F087C004F0000E056E000E066EA0
:1009E000000E076E000E086EFFEC15F0D8B0FBEF9E
:1009F00004F0FDEF04F0DCEF05F00AEF05F073C042
:100A000088F074C089F075C08AF076C08BF0000160
:100A10006F4B702B88C016F089C017F08AC018F091
:100A20008BC019F0000E1A6E000E1B6E200E1C6E8D
:100A3000410E1D6E70EC0BF016C073F017C074F011
:100A400018C075F019C076F000017351845D016E15
:100A500074518559026E75518659036E76518759C6
:100A6000046E0CEC17F004BE41EF05F004500310C7
:100A7000021009E1020E015CD8A041EF05F043EF3E
:100A800005F0FFEF04F073C02FF074C030F075C0B4
:100A900031F076C032F084C033F085C034F086C0C7
:100AA00035F087C036F099EC14F0D8A05AEF05F075
:100AB0005CEF05F0FFEF04F000018851845D016EEA
:100AC00089518559026E8A518659036E8B51875917
:100AD000046E0CEC17F004BE7BEF05F0045003101D
:100AE000021007E1020E015CD8B079EF05F07BEF50
:100AF00005F0C3EF05F088C084F089C085F08AC096
:100B000086F08BC087F0DCEF05F088C011F089C05B
:100B100012F08AC013F08BC014F0000E156E000E98
:100B2000166E200E176E410E186E85EC0DF011C07A
:100B300088F012C089F013C08AF014C08BF0000155
:100B40006F07D8A070078851845D016E895185595F
:100B5000026E8A518659036E8B518759046E0CECD4
:100B600017F004BEC1EF05F004500310021007E1B6
:100B7000020E015CD8B0BFEF05F0C1EF05F0C3EF86
:100B800005F07BEF05F084C02FF085C030F086C003
:100B900031F087C032F088C033F089C034F08AC0A9
:100BA00035F08BC036F099EC14F0D8A0DAEF05F0F0
:100BB000DCEF05F085EF05F044C069F069C06AF02C
:100BC0000001B6BFE6EF05F0E8EF05F0EEEF05F047
:100BD000B5C062F0B6C063F0F2EF05F0000E636FCF
:100BE000060E626F62C06DF063C06EF06D4B6E2BCF
:100BF000660E6A19D8A4FFEF05F001EF06F021EFA9
:100C000006F070BF08EF06F006EF06F014EF06F0EE
:100C1000000E886F000E896F800E8A6F3F0E8B6FFB
:100C2000000E706F000E6F6F670E6919D8B41BEF5E
:100C300006F01DEF06F021EF06F06F516D277051A1
:100C40006E23000E786F000E776F84C079F085C038
:100C50007AF086C07BF087C07CF088C073F089C0D2
:100C600074F08AC075F08BC076F0B2EF06F079C0F0
:100C700011F07AC012F07BC013F07CC014F088C071
:100C800015F089C016F08AC017F08BC018F085ECFB
:100C90000DF011C02AF012C02BF013C02CF014C0BC
:100CA0002DF0DDEC10F02AC07DF02BC07EF02CC0C2
:100CB0007FF02DC080F07DC001F07EC002F07FC0CB
:100CC00003F080C004F016EC14F001C06BF002C019
:100CD0006CF079C02FF07AC030F07BC031F07CC06E
:100CE00032F07DC01AF07EC01BF07FC01CF080C0C7
:100CF0001DF088C016F089C017F08AC018F08BC0AC
:100D000019F070EC0BF016C033F017C034F018C0B7
:100D100035F019C036F019EC18F02FC079F030C05A
:100D20007AF031C07BF032C07CF088C011F089C00D
:100D300012F08AC013F08BC014F0000E156E000E76
:100D4000166E200E176E410E186E85EC0DF011C058
:100D500088F012C089F013C08AF014C08BF0000133
:100D6000774B782B6D51775D7851800A456E6E51C7
:100D7000800A4558D8A0BFEF06F0C1EF06F037EF64
:100D800006F088C016F089C017F08AC018F08BC032
:100D900019F0000E1A6E000E1B6EA00E1C6E400E97
:100DA0001D6E70EC0BF016C07DF017C07EF018C001
:100DB0007FF019C080F079C02FF07AC030F07BC08E
:100DC00031F07CC032F07DC033F07EC034F07FC0A3
:100DD00035F080C036F099EC14F0D8B0F2EF06F0A0
:100DE000F4EF06F0FFEF06F0000E00017D6F000E3D
:100DF0007E6F000E7F6F000E806F28EF07F079C0C6
:100E000001F07AC002F07BC003F07CC004F07DC02A
:100E100005F07EC006F07FC007F080C008F0FFEC50
:100E200015F0D8A016EF07F018EF07F028EF07F03D
:100E300000016BB11EEF07F020EF07F028EF07F07D
:100E4000000E7D6F000E7E6F000E7F6F000E806FB4
:100E500084C001F085C002F086C003F087C004F0B2
:100E60007DC005F07EC006F07FC007F080C008F0AE
:100E700010EC09F001C079F002C07AF003C07BF0F9
:100E800004C07CF079C02FF07AC030F07BC031F024
:100E90007CC032F0000E1A6E000E1B6E200E1C6E0F
:100EA000410E1D6E73C016F074C017F075C018F0B7
:100EB00076C019F070EC0BF016C033F017C034F0A8
:100EC00018C035F019C036F099EC14F0D8A06BEFCB
:100ED00007F06DEF07F096EF07F000016F4B702BF6
:100EE00073C016F074C017F075C018F076C019F012
:100EF000000E1A6E000E1B6E200E1C6E410E1D6E33
:100F000070EC0BF016C073F017C074F018C075F0D9
:100F100019C076F0660E00016A19D8A492EF07F0A6
:100F200094EF07F096EF07F06D4B6E2B73C088F0CF
:100F300074C089F075C08AF076C08BF06FC060F025
:100F400070C061F0000E0001686F000E656F000E4A
:100F5000646F000E786F000E776F94EF08F079C021
:100F600011F07AC012F07BC013F07CC014F088C07E
:100F700015F089C016F08AC017F08BC018F085EC08
:100F80000DF011C02AF012C02BF013C02CF014C0C9
:100F90002DF0DDEC10F02AC07DF02BC07EF02CC0CF
:100FA0007FF02DC080F07DC001F07EC002F07FC0D8
:100FB00003F080C004F016EC14F002BEEBEF07F073
:100FC000025007E10A0E015CD8B0E9EF07F0EBEF41
:100FD00007F0FBEF07F07DC001F07EC002F07FC09C
:100FE00003F080C004F016EC14F001C06BF002C0F6
:100FF0006CF000EF08F0000E00016C6F090E6B6FD3
:1010000000016851D8A407EF08F009EF08F031EFAC
:1010100008F061BF10EF08F00EEF08F031EF08F0B4
:10102000000E8225D96E010E8321DA6E2E0EDF6E40
:10103000824B832B7107D8A07207010E686F31EFC6
:1010400008F0000E8225D96E010E8321DA6E300E73
:10105000DF6E824B832B7107D8A072076407D8A07C
:10106000650764516511D8A438EF08F03AEF08F02D
:1010700021EF08F0000E8225D96E010E8321DA6E71
:101080006B51300FDF6E824B832B7107D8A0720734
:1010900079C02FF07AC030F07BC031F07CC032F0E4
:1010A0007DC01AF07EC01BF07FC01CF080C01DF018
:1010B00088C016F089C017F08AC018F08BC019F0EC
:1010C00070EC0BF016C033F017C034F018C035F0D8
:1010D00019C036F019EC18F02FC079F030C07AF052
:1010E00031C07BF032C07CF088C011F089C012F0B2
:1010F0008AC013F08BC014F0000E156E000E166E31
:10110000200E176E410E186E85EC0DF011C088F0A0
:1011100012C089F013C08AF014C08BF00001600780
:10112000D8A06107774B782B6D51775D7851800A95
:10113000456E6E51800A4558D8B0A1EF08F0A3EF74
:1011400008F0B1EF08F083BFAFEF08F0835109E179
:101150004B0E825DD8A0AFEF08F0B1EF08F0AFEF13
:1011600007F0000E786F4F0E776F000E7725D96E5F
:10117000010E7821DA6E000EDF6E000E456E010E54
:10118000466E8251455E8351465A77514524016E21
:1011900078514620026E000E036E010E046E82C06E
:1011A00005F083C006F0F1EC17F000018251775D85
:1011B000826F83517859836F8151D8A4E2EF08F090
:1011C000E5EF08F0010EE6EF08F0000E776F786BA0
:1011D0008151D8B4EEEF08F0F0EF08F0FBEF08F023
:1011E0008207D8A08307000E8225D96E010E8321C5
:1011F000DA6E81C0DFFF7751715F7851725B3EC05C
:1012000012F03FC013F0000E8225146E010E8321F0
:10121000156E71C016F072C017F093EC16F0120044
:101220000450800B0D6E045004240F6E03AE1BEFB0
:1012300009F01DEF09F01EEF09F00F800F50D8B430
:1012400024EF09F026EF09F03BEF09F00F28D8A4AE
:101250002CEF09F02EEF09F036EF09F0000E016EC9
:10126000000E026E000E036E000E046E038E000E62
:10127000046E43EF09F0000E016E000E026E000EC8
:10128000036E000E046E0850800B0E6E0D500E188B
:10129000D8B44DEF09F04FEF09F050EF09F00D8C85
:1012A000085008240E6E07AE58EF09F05AEF09F007
:1012B0005BEF09F00E800E50D8B461EF09F063EFD8
:1012C00009F078EF09F00E28D8A469EF09F06BEF68
:1012D00009F073EF09F0000E056E000E066E000EA9
:1012E000076E000E086E078E000E086E80EF09F084
:1012F000000E056E000E066E000E076E000E086EE4
:101300000F500E5CD8B087EF09F089EF09F0B0EF0D
:1013100009F00DAC8EEF09F090EF09F092EF09F0B3
:10132000800E0D1A0FC010F00EC00FF010C00EF09E
:1013300001C010F005C001F010C005F002C010F0AF
:1013400006C002F010C006F003C010F007C003F0A2
:1013500010C007F004C010F008C004F010C008F07E
:10136000000E106E0F500EC009F00A6A095E000EE2
:101370000A5A0ABEC5EF09F00A5009E11A0E095CC3
:10138000D8A0C5EF09F0C7EF09F0FEEF09F0015052
:10139000021003100410D8A4D0EF09F0D3EF09F025
:1013A000010ED4EF09F0000E106E000E016E000E5B
:1013B000026E000E036E000E046E0EC00FF007EFFB
:1013C0000AF010A0E6EF09F0E8EF09F0EEEF09F0FF
:1013D000D89010300109106EF0EF09F0D89010325B
:1013E00001A0F5EF09F0F7EF09F0F8EF09F0108E22
:1013F000043404320332023201320F2A0E500F5CE1
:10140000D8A005EF0AF007EF0AF0E1EF09F00DBCF4
:101410000CEF0AF00EEF0AF04EEF0AF00F50D8A4CE
:1014200014EF0AF016EF0AF020EF0AF0000E016E3A
:10143000000E026E000E036E000E046E6FEF0BF0D6
:1014400005500126065002220750032208500422AC
:1014500004A02DEF0AF02FEF0AF0DBEF0AF010A046
:1014600034EF0AF036EF0AF03CEF0AF0D890103073
:101470000109106E3EEF0AF0D890103201A043EF40
:101480000AF045EF0AF046EF0AF0108E04340432F9
:101490000332023201320F2ADBEF0AF00550015C01
:1014A00006500258075003580450800A096E08502D
:1014B000800A0958D8B05FEF0AF061EF0AF08CEFAC
:1014C0000AF00150055C096E025006580A6E03507E
:1014D00007580B6E045008580C6EFF0E0924016E5D
:1014E000FF0E0A20026EFF0E0B20036EFF0E0C2073
:1014F000046E800E0D1A106C1050D8A482EF0AF002
:1015000084EF0AF094EF0AF0010E0126000E022289
:101510000322042294EF0AF00550015E0650025A9D
:101520000750035A0850045A0150021003100410C7
:10153000D8A49DEF0AF09FEF0AF0D4EF0AF0105004
:10154000D8A4A5EF0AF0A7EF0AF0D4EF0AF0000E36
:10155000016E000E026E000E036E000E046E6FEF41
:101560000BF0D890013602360336043610AEBBEFCE
:101570000AF0BDEF0AF0BEEF0AF0018010A0C3EF41
:101580000AF0C5EF0AF0C9EF0AF0D8801036CBEFA9
:101590000AF0D89010360F50D8B4D1EF0AF0D3EF3C
:1015A0000AF0D4EF0AF00F0603AED9EF0AF0DBEF32
:1015B0000AF0B1EF0AF0000E0E6E10AEE2EF0AF084
:1015C000E4EF0AF0FCEF0AF010C009F07F0E0916F4
:1015D000D8B4EDEF0AF0EFEF0AF0F3EF0AF0010EE6
:1015E0000E6EFCEF0AF001A0F8EF0AF0FAEF0AF035
:1015F000FCEF0AF0EFEF0AF00E50D8B402EF0BF058
:1016000004EF0BF02FEF0BF0010E0126000E02226B
:101610000322042204A00FEF0BF011EF0BF02FEFC9
:101620000BF001C009F002C00AF003C00BF004C0C7
:101630000CF00C340C320B320A32093209C001F0C2
:101640000AC002F00BC003F00CC004F00F28D8B49D
:101650002CEF0BF02EEF0BF02FEF0BF00F2A0F28D3
:10166000D8B435EF0BF037EF0BF03FEF0BF00F5026
:10167000D8A43DEF0BF03FEF0BF051EF0BF0000E55
:10168000016E000E026E000E036E000E046E0F500F
:10169000D8A44DEF0BF04FEF0BF051EF0BF0000E15
:1016A0000D6E0FA056EF0BF058EF0BF05BEF0BF049
:1016B000038E5CEF0BF0039ED8900F30046E0DAEDE
:1016C00064EF0BF066EF0BF067EF0BF0048E01C0D8
:1016D00001F002C002F003C003F004C004F01200E5
:1016E0001950800B226E19501924286E18AE7BEF0A
:1016F0000BF07DEF0BF07EEF0BF028802850D8B474
:1017000084EF0BF086EF0BF099EF0BF02828D8A4AC
:101710008CEF0BF08EEF0BF096EF0BF0000E166EC9
:10172000000E176E000E186E000E196E188EA1EFC7
:101730000BF0000E166E000E176E000E186E000EE7
:10174000196E1D50800B221A1D501D24276E1CAED1
:10175000ACEF0BF0AEEF0BF0AFEF0BF027802750A4
:10176000D8B4B5EF0BF0B7EF0BF0CAEF0BF02728AA
:10177000D8A4BDEF0BF0BFEF0BF0C7EF0BF0000EDE
:101780001A6E000E1B6E000E1C6E000E1D6E1C8E5F
:10179000D2EF0BF0000E1A6E000E1B6E000E1C6EC8
:1017A000000E1D6E2750D8B4D8EF0BF0DAEF0BF017
:1017B000E2EF0BF02850D8A4E0EF0BF0E2EF0BF0D3
:1017C000ECEF0BF0000E166E000E176E000E186E8A
:1017D000000E196E84EF0DF01C501602F3CF2DF0A1
:1017E000F4CF2EF02D50236E246A256A266A2E50DF
:1017F000296E2A6A2B6A2C6A1B501702F3CF2DF030
:10180000F4CF2EF02D502326000E2422252226224E
:101810002E502926000E2A222B222C221A50180282
:10182000F3CF2DF0F4CF2EF02D502326000E2422DE
:10183000252226222E502926000E2A222B222C2257
:1018400025C026F024C025F023C024F0236A1A50B6
:101850001702F3CF2DF0F4CF2EF02D5023262E506B
:101860002422000E2522000E26221B501602F3CF42
:101870002DF0F4CF2EF02D5023262E502422000ED2
:101880002522000E262225C026F024C025F023C0E4
:1018900024F0236A1A501602F3CF2DF0F4CF2EF065
:1018A0002D5023262E502422000E2522000E262203
:1018B0001C501702F3CF2DF0F4CF2EF02D50292617
:1018C0002E502A22000E2B22000E2C221B50180212
:1018D000F3CF2DF0F4CF2EF02D5029262E502A22B2
:1018E000000E2B22000E2C221C501802F3CF2DF0DC
:1018F000F4CF2EF02D501E6E2E501F6E206A216ADE
:1019000020C021F01FC020F01EC01FF01E6A1E5014
:1019100029261F502A2220502B2221502C2223C05E
:101920001EF024C01FF025C020F026C021F0190EA3
:101930009FEF0CF0D890213220321F321E32E82E59
:101940009AEF0CF01E5029261F502A2220502B22DD
:1019500021502C2225C026F024C025F023C024F0DD
:10196000236A275028C01EF01F6A1E26000E1F2261
:10197000820E1E242D6EFF0E1F202E6ED5EF0CF052
:10198000D89029362A362B362C3626AECAEF0CF0E4
:10199000CCEF0CF0CDEF0CF02980D8902336243614
:1019A000253626362D06D8A02E062BAEDAEF0CF003
:1019B000DCEF0CF0C0EF0CF0000E276E26AEE3EF6C
:1019C0000CF0E5EF0CF009EF0DF0FF0E23141E6E86
:1019D000FF0E24141F6EFF0E2514206E7F0E26149A
:1019E000216E1E501F1020102110D8B4FAEF0CF0F9
:1019F000FCEF0CF000EF0DF0010E276E09EF0DF07B
:101A000029A005EF0DF007EF0DF009EF0DF0FCEF49
:101A10000CF02750D8B40FEF0DF011EF0DF035EFAB
:101A20000DF0010E2926000E2A222B222C222CA09A
:101A30001CEF0DF01EEF0DF035EF0DF029C01EF07C
:101A40002AC01FF02BC020F02CC021F021342132FD
:101A500020321F321E321EC029F01FC02AF020C0C3
:101A60002BF021C02CF02D4A2E2A2EBE40EF0DF077
:101A70002E5008E12D28D8A040EF0DF042EF0DF0D8
:101A80004CEF0DF0000E296E000E2A6E800E2B6EAC
:101A90007F0E2C6E7AEF0DF02EBE59EF0DF02E500A
:101AA00006E12D04D8B057EF0DF059EF0DF065EFBA
:101AB0000DF0000E296E000E2A6E000E2B6E000E29
:101AC0002C6E000E226E7AEF0DF02DC028F0FF0E66
:101AD0002916FF0E2A167F0E2B16000E2C1628A094
:101AE00074EF0DF076EF0DF077EF0DF02B8ED890B0
:101AF00028302C6E22502C1229C016F02AC017F064
:101B00002BC018F02CC019F012001450800B216E5D
:101B100014501424286E13AE90EF0DF092EF0DF0D8
:101B200093EF0DF028802850D8B499EF0DF09BEF7B
:101B30000DF0B0EF0DF02828D8A4A1EF0DF0A3EF21
:101B40000DF0ABEF0DF0000E116E000E126E000ED8
:101B5000136E000E146E138E000E146EB8EF0DF09F
:101B6000000E116E000E126E000E136E000E146E3B
:101B70001850800B211A18501824296E17AEC3EF85
:101B80000DF0C5EF0DF0C6EF0DF029802950D8B447
:101B9000CCEF0DF0CEEF0DF0E3EF0DF02928D8A437
:101BA000D4EF0DF0D6EF0DF0DEEF0DF0000E156E58
:101BB000000E166E000E176E000E186E178E000EB9
:101BC000186EEBEF0DF0000E156E000E166E000E87
:101BD000176E000E186E1550161017101810D8A496
:101BE000F4EF0DF0F6EF0DF00EEF0EF0000E116EAB
:101BF000000E126E000E136E000E146E800E131285
:101C00007F0E14122150141211C011F012C012F0E4
:101C100013C013F014C014F051EF0FF02850D8A4E3
:101C200014EF0EF016EF0EF020EF0EF0000E116E16
:101C3000000E126E000E136E000E146E51EF0FF0B8
:101C4000295028C019F01A6A195E000E1A5A7F0E20
:101C50001924226E000E1A20236E11C01DF012C02E
:101C60001EF013C01FF014C020F0000E116E000E05
:101C7000126E000E136E000E146E000E246E000E17
:101C8000256E000E266E000E276E000E296E81EF67
:101C90000EF02950D8B44FEF0EF051EF0EF068EF70
:101CA0000EF0D8901D361E361F362036D8901136CD
:101CB00012361336143627AE60EF0EF062EF0EF0D8
:101CC00063EF0EF01180D89024362536263627365D
:101CD00015501D5C16501E5817501F58185020588C
:101CE000D8A075EF0EF077EF0EF080EF0EF0278C96
:101CF00015501D5E16501E5A17501F5A1850205A64
:101D0000292A190E296487EF0EF089EF0EF049EFAA
:101D10000EF01D501E101F102010D8B492EF0EF0C0
:101D200094EF0EF0ACEF0EF02480ACEF0EF0D890F4
:101D3000113612361336143627AEA1EF0EF0A3EF8C
:101D40000EF0A4EF0EF01180D890243625362636FA
:101D500027362206D8A0230613AEB1EF0EF0B3EF5C
:101D60000EF097EF0EF0000E296E27AEBAEF0EF0D0
:101D7000BCEF0EF0E0EF0EF0FF0E2414196EFF0E14
:101D800025141A6EFF0E26141B6E7F0E27141C6E70
:101D900019501A101B101C10D8B4D1EF0EF0D3EF4D
:101DA0000EF0D7EF0EF0010E296EE0EF0EF011A04D
:101DB000DCEF0EF0DEEF0EF0E0EF0EF0D3EF0EF002
:101DC0002950D8B4E6EF0EF0E8EF0EF00CEF0FF06C
:101DD000010E1126000E12221322142214A0F3EF7A
:101DE0000EF0F5EF0EF00CEF0FF011C019F012C06D
:101DF0001AF013C01BF014C01CF01C341C321B3230
:101E00001A32193219C011F01AC012F01BC013F0A7
:101E10001CC014F0224A232A23BE17EF0FF02350D0
:101E200008E12228D8A017EF0FF019EF0FF024EFE8
:101E30000FF0000E236E2268000E116E000E126E5F
:101E4000000E136E000E146E23BE31EF0FF0235000
:101E500006E12204D8B02FEF0FF031EF0FF03FEF83
:101E60000FF0000E236E000E226E000E116E000E9B
:101E7000126E000E136E000E146E000E216E22C044
:101E800028F028A046EF0FF048EF0FF04BEF0FF0CF
:101E9000138E4CEF0FF0139ED8902830146E02EF83
:101EA0000EF0120049C0D9FF4AC0DAFFDECFF6FFBC
:101EB000DDCFF7FF0800F550250AD8A462EF0FF038
:101EC00064EF0FF0C8EF10F049C0D9FF4AC0DAFF45
:101ED000DE2A000EDD22000E0001B46F000EB36F8B
:101EE000B3C05FF0B569B66949C0D9FF4AC0DAFF2F
:101EF000DECFF6FFDDCFF7FF0800F5502E0AD8A49D
:101F000084EF0FF086EF0FF0F3EF0FF0000EB66FD7
:101F1000000EB56F49C0D9FF4AC0DAFFDE2A000EB5
:101F2000DD2249C0D9FF4AC0DAFFDECFF6FFDDCFA0
:101F3000F7FF0800F5502A0AD8A4A1EF0FF0A3EF8D
:101F40000FF0C0EF0FF049C0D9FF4AC0DAFFDE2A18
:101F5000000EDD224BC0D9FF4CC0DAFFDFCF4DF0C1
:101F6000020EDE26DFCF4EF0000EDD224DC0D9FF7F
:101F70004EC0DAFFDECFB5F0DDCFB6F0F3EF0FF0F5
:101F800049C0D9FF4AC0DAFFDECF07F0DDCF08F045
:101F900071EC13F007C0B5F008C0B6F0D7EF0FF042
:101FA00049C0D9FF4AC0DAFFDE2A000EDD2249C04F
:101FB000D9FF4AC0DAFFDECFF6FFDDCFF7FF08001A
:101FC000F5CF4DF0D00E4D244E6E4F6AFF0E4F22CE
:101FD0004F5009E10A0E4E5CD8A0F1EF0FF0F3EF7D
:101FE0000FF0D0EF0FF049C0D9FF4AC0DAFFDECFC3
:101FF00059F0DDCF5AF059C0F6FF5AC0F7FF08007C
:10200000F5CF58F010EF10F0594A5A2A29EF10F086
:102010006C0E586E29EF10F0000E586E29EF10F07C
:1020200058504D6E4E6A4E50000AD8B41AEF10F058
:102030000CEF10F04D504C0AD8B404EF10F02A0AFF
:10204000D8B408EF10F00A0AD8B404EF10F00CEF7F
:1020500010F059C0F6FF5AC0F7FF0800F550660AA5
:10206000D8A435EF10F037EF10F0BFEF10F06DEFA0
:1020700010F04BC0D9FF4CC0DAFFDFCF4DF0040E9B
:10208000DE26DFCF4EF0000EDD224DC0D9FF4EC060
:10209000DAFFDECF50F0DECF51F0DECF52F0DECFF0
:1020A00053F082EF10F04BC0D9FF4CC0DAFFDFCF06
:1020B0004DF0040EDE26DFCF4EF0000EDD224DC0C7
:1020C000D9FF4EC0DAFFDECF50F0DECF51F0DECFC9
:1020D00052F0DECF53F082EF10F058504D6E4E6A42
:1020E0004E50000AD8B477EF10F082EF10F04D5048
:1020F0004C0AD8B453EF10F0200AD8B439EF10F0DE
:1021000082EF10F0010E59244D6E000E5A204E6ED3
:1021100049C0D9FF4AC0DAFF4DC0DEFF4EC0DDFF27
:10212000A9EF10F047C03EF048C03FF050C040F06B
:1021300051C041F052C042F053C043F059C0F6FFC5
:102140005AC0F7FF0800F5CF44F013EC04F0DCEFC1
:1021500010F059C0F6FF5AC0F7FF0800F5504D6E59
:102160004E6A4E50000AD8B4B8EF10F0BFEF10F02E
:102170004D50660AD8B492EF10F0BFEF10F049C08E
:10218000D9FF4AC0DAFFDE2A000EDD22DCEF10F0B4
:1021900049C0D9FF4AC0DAFFDECFF6FFDDCFF7FF37
:1021A0000800F550026E036A47C004F048C005F00D
:1021B0009AEC15F0BFEF10F01200A7C03AF0A8C0DB
:1021C0003BF0A9C03CF0AAC03DF02AC03AF02BC0B9
:1021D0003BF02CC03CF02DC03DF0810E2E6EFF0E6A
:1021E0002F6E3AC030F03BC031F03CC032F03DC001
:1021F00033F0180E01EF11F0D89033323232313211
:102200003032E82EFCEF10F030502E24386E000EE5
:102210002F20396E39BE16EF11F0395009E1170E33
:10222000385CD8A016EF11F018EF11F022EF11F082
:102230002AC02AF02BC02BF02CC02CF02DC02DF082
:10224000E5EF11F039BE27EF11F029EF11F099EF0A
:1022500011F038C02EF0FF0E2F6EFF0E306E7F0E85
:10226000316E000E326E2E6638EF11F040EF11F035
:1022700032343232313230322F322E2E33EF11F0EF
:102280002FC034F030C035F031C036F032C037F0F6
:1022900034503A142E6E35503B142F6E36503C1489
:1022A000306E37503D14316E2E502F1030103110DB
:1022B000D8A45DEF11F05FEF11F061EF11F018EFAE
:1022C00011F03AC02EF03BC02FF03CC030F03DC0C2
:1022D00031F0200E71EF11F0D890313230322F32C0
:1022E0002E32E82E6CEF11F02E502F1030103110DE
:1022F000D8B47DEF11F07FEF11F087EF11F034507B
:102300003A2635503B2236503C2237503D22341C71
:102310002E6E351C2F6E361C306E371C316E2E50D3
:102320003A162F503B1630503C1631503D16DDEF1B
:1023300011F03AC02EF03BC02FF03CC030F03DC051
:1023400031F0200EA9EF11F0D890313230322F3217
:102350002E32E82EA4EF11F02E502F103010311035
:10236000D8A4B5EF11F0B7EF11F0C1EF11F0000EE6
:102370003A6E000E3B6E000E3C6E000E3D6EDDEFC1
:1023800011F0D8903A342E6E3B342F6E3C34306EC0
:102390003D34316E2E502F1030103110D8B4D3EFA1
:1023A00011F0D5EF11F0DDEF11F0000E3A6E000ED6
:1023B0003B6E800E3C6EBF0E3D6E3AC02AF03BC0B5
:1023C0002BF03CC02CF03DC02DF01200106E1050D0
:1023D000D8B4EDEF11F0EFEF11F011EF12F00BBEEA
:1023E000F6EF11F0F4EF11F011EF12F008C00CF05D
:1023F00009C00DF00AC00EF00BC00FF00C1E0D1E30
:102400000E1E0F1E0C2A000E0D220E220F220CC0D3
:1024100012F00DC013F00EC014F00FC015F019EF3C
:1024200012F008C012F009C013F00AC014F00BC07B
:1024300015F0085009100A100B10D8A422EF12F062
:1024400024EF12F02EEF12F0000E086E000E096E4F
:10245000000E0A6E000E0B6EBFEF12F0960E116E9C
:1024600038EF12F0112AD89015321432133212328A
:10247000000E12140C6E000E13140D6E000E1414C8
:102480000E6EFE0E15140F6E0C500D100E100F1068
:10249000D8A44DEF12F04FEF12F032EF12F05DEFD3
:1024A00012F0112A010E1226000E132214221522F8
:1024B000D8901532143213321232000E12140C6EF0
:1024C000000E13140D6E000E14140E6EFF0E151474
:1024D0000F6E0C500D100E100F10D8A472EF12F0EA
:1024E00074EF12F051EF12F07CEF12F01106D89059
:1024F000123613361436153614BE81EF12F083EF00
:1025000012F08BEF12F0020E116089EF12F08BEFD8
:1025100012F076EF12F011B090EF12F092EF12F08D
:1025200093EF12F0149ED890113211C00CF00D6A86
:102530000E6A0F6A0CC00FF00E6A0D6A0C6A0C501E
:1025400012120D5013120E5014120F50151210507B
:10255000D8B4ADEF12F0AFEF12F0B7EF12F00BBE40
:10256000B6EF12F0B4EF12F0B7EF12F0158E12C002
:1025700008F013C009F014C00AF015C00BF01200E7
:1025800080EC19F091EC19F052EC19F0D0EC16F047
:1025900098EC19F0000EC3EC18F003C008F004C06A
:1025A00009F00A6A0B6A000EE6EC11F008C016F09A
:1025B00009C017F00AC018F00BC019F00A0E1A6E05
:1025C000280E1B6EA00E1C6E3B0E1D6E70EC0BF0E9
:1025D00016C0AFF017C0B0F018C0B1F019C0B2F01B
:1025E000000E056E000E066E000E076EBF0E086E22
:1025F000AFC001F0B0C002F0B1C003F0B2C004F04F
:1026000010EC09F001C011F002C012F003C013F089
:1026100004C014F00A0E156ED70E166E230E176E38
:102620003C0E186E85EC0DF011C0AFF012C0B0F08A
:1026300013C0B1F014C0B2F0B70E0001926F000EDB
:10264000936F120E946F080E956FAFC096F0B0C0E6
:1026500097F0B1C098F0B2C099F0A0EC17F0010E5D
:10266000046E010E3FEC17F0010E056E080E066EAB
:1026700054EC16F0030E046E020E3FEC17F0B70E8A
:10268000056E000E066E54EC16F0AFC02FF0B0C011
:1026900030F0B1C031F0B2C032F0000E336E000E37
:1026A000346EF00E356E410E366E99EC14F0D8A0F3
:1026B0005CEF13F05EEF13F061EF13F08D8062EFCB
:1026C00013F08D90030E5E6E8A0E5D6E560EE82E30
:1026D000FED75D2EFCD75E2EFAD7CAEF12F000EFC0
:1026E00000F0000E0F6E000E0E6E000E0D6E000E4E
:1026F0000C6E7DEF13F0074A082A07C0F6FF08C0EA
:10270000F7FF0800F550200AD8B489EF13F08BEFDB
:1027100013F07BEF13F007C0F6FF08C0F7FF0800C7
:10272000F5CF09F0F70E09240A6E0B6AFF0E0B2293
:102730000B5009E1050E0A5CD8A0A1EF13F0A3EF3E
:1027400013F07BEF13F0ADEF13F0000E0D6E010EE2
:102750000C6E074A082AE2EF13F007C0F6FF08C024
:10276000F7FF0800F550096E0A6A0A50000AD8B44B
:10277000BCEF13F0E2EF13F009502B0AD8B4A9EF25
:1027800013F0060AD8B4A5EF13F0E2EF13F00EC071
:1027900001F00FC002F0000E046E0A0E036E2FEC63
:1027A00019F007C0F6FF08C0F7FF0800F550015EFA
:1027B000000E025A300E01240E6E000E02200F6E23
:1027C000A9EF13F007C0F6FF08C0F7FF0800F5CF28
:1027D00009F0D00E09240A6E0B6AFF0E0B220B5073
:1027E00009E10A0E0A5CD8A0F8EF13F0FAEF13F033
:1027F000C7EF13F00C500D10D8A401EF14F003EF45
:1028000014F011EF14F00EC009F00FC00AF0091E09
:102810000A1E094A0A2A09C007F00AC008F015EF83
:1028200014F00EC007F00FC008F012000334043497
:102830000A6E0A50D8A41FEF14F021EF14F02BEF0A
:1028400014F0000E016E000E026E000E036E000EFC
:10285000046E98EF14F001C005F002C006F003C04A
:1028600007F004C008F0200E3BEF14F0D8900832B7
:10287000073206320532E82E36EF14F00550096EA5
:10288000038EFF0E0116FF0E0216FF0E0316000E3A
:102890000416960E0A5E0ABE52EF14F050EF14F0C2
:1028A00068EF14F00A50800A970FD8B05AEF14F06E
:1028B0005CEF14F05EEF14F021EF14F0D8900432C6
:1028C0000332023201320A3E5EEF14F080EF14F060
:1028D0001F0E0A646EEF14F070EF14F078EF14F02E
:1028E00021EF14F0D89001360236033604360A067A
:1028F0000A50D8A47EEF14F080EF14F072EF14F0B9
:102900000950D8B486EF14F088EF14F090EF14F06B
:10291000041E031E021E016C000E0222032204226A
:1029200001C001F002C002F003C003F004C004F0D3
:102930001200000E2F14376E000E3014386E800E09
:102940003114396E7F0E32143A6E37503810391008
:102950003A10D8A4AEEF14F0B0EF14F0B8EF14F0C2
:10296000000E2F6E000E306E000E316E000E326EB5
:10297000000E3314376E000E3414386E800E35148A
:10298000396E7F0E36143A6E3750381039103A10BF
:10299000D8A4CDEF14F0CFEF14F0D7EF14F0000E61
:1029A000336E000E346E000E356E000E366E32AE93
:1029B000DCEF14F0DEEF14F0E7EF14F02F6C301EB4
:1029C000D8B0302A311ED8B0312A800E325636AEF9
:1029D000ECEF14F0EEEF14F0F7EF14F0336C341E5C
:1029E000D8B0342A351ED8B0352A800E3656000E9F
:1029F0002F1A000E301A000E311A800E321A000EF5
:102A0000331A000E341A000E351A800E361A33505F
:102A10002F5C345030583550315836503258D8B079
:102A200014EF15F016EF15F019EF15F0D8901AEF16
:102A300015F0D8801200ABC00BF0ACC00CF0ADC0EC
:102A40000DF0AEC00EF001C00BF002C00CF003C0E0
:102A50000DF004C00EF00BC005F00CC006F00DC068
:102A600007F00EC008F0180E3BEF15F0D8900832B2
:102A7000073206320532E82E36EF15F00550096EA2
:102A80000A6A09500A10D8A448EF15F04AEF15F069
:102A90006AEF15F0D8900B34056E0C34066E0D34C9
:102AA000076E0E34086E0550061007100810D8A4E3
:102AB0005CEF15F05EEF15F064EF15F0000E026E9E
:102AC000020E016E99EF15F0000E026E030E016EFC
:102AD00099EF15F009280A10D8A471EF15F073EFDB
:102AE00015F095EF15F00BC005F00CC006F00DC009
:102AF00007F00EC008F0090ED890053606360736E6
:102B00000836E82E7CEF15F0055006100710081067
:102B1000D8B48DEF15F090EF15F0010E91EF15F090
:102B2000000E016E026A99EF15F0000E026E040E9F
:102B3000016E120004500510D8B4A1EF15F0A3EFF8
:102B400015F0ACEF15F004500510D8A4AAEF15F05D
:102B5000ACEF15F0B1EF15F0025060EC19F0FEEF9C
:102B600015F020EE09F00450D9260550DA22DE5087
:102B7000DE10D8B4BEEF15F0C0EF15F0DBEF15F0A6
:102B800020EE09F00450D9260550DA2210EE03F0A9
:102B90000450E1260550E222DE50E65CE650800A51
:102BA0000A6EDE50800A0A58D8B0D9EF15F0DBEF74
:102BB00015F0FEEF15F020EE03F00450D926055075
:102BC000DA22DECF06F0DDCF07F004C0D9FF05C062
:102BD000DAFFDECF08F0DDCF09F006500824D96E09
:102BE00007500920DA6E02C0DFFF20EE03F0045028
:102BF000D9260550DA22DE2A000EDD221200000E50
:102C00000114096E000E02140A6E800E03140B6E7E
:102C10007F0E04140C6E09500A100B100C10D8A46F
:102C200014EF16F016EF16F01EEF16F0000E016E00
:102C3000000E026E000E036E000E046E000E0514F0
:102C4000096E000E06140A6E800E07140B6E7F0EBE
:102C500008140C6E09500A100B100C10D8A433EF96
:102C600016F035EF16F03DEF16F0000E056E000E73
:102C7000066E000E076E000E086E055001180FE17B
:102C8000065002180CE10750031809E10850041817
:102C9000D8B44DEF16F04FEF16F052EF16F0D89073
:102CA00053EF16F0D8801200000E0A6E000E096E67
:102CB00074EF16F009500524076E0A500620086EBE
:102CC00007C0F6FF08C0F7FFF86A070EF76403D0E5
:102CD0000800F55005D0F6CFE9FFF7CFEAFFEF5037
:102CE000FDEC18F0094A0A2A09500524076E0A501B
:102CF0000620086E07C0F6FF08C0F7FFF86A070E47
:102D0000F76403D00800F55005D0F6CFE9FFF7CF00
:102D1000EAFFEF500009D8A490EF16F092EF16F0FA
:102D20005AEF16F0120017BE98EF16F09AEF16F051
:102D3000A0EF16F016C01BF017C01CF0A4EF16F0A1
:102D4000000E1C6E000E1B6E000E1A6E000E196E29
:102D5000B6EF16F0000E036E200E026E12C004F0E5
:102D600013C005F09AEC15F0194A1A2A1B50195C89
:102D70001A50800A186E1C50800A1858D8A0C3EF49
:102D800016F0C5EF16F0AAEF16F014C00BF015C040
:102D90000CF012C00DF013C00EF081EC18F0120010
:102DA0000F0E9516F30E9516000E72EC17F0340EFA
:102DB000046EF20EE82EFED7042EFCD7030E42EC72
:102DC00019F00D0E046EFC0EE82EFED7042EFCD773
:102DD000030E42EC19F01D0E046E910EE82EFED784
:102DE000042EFCD700F0030E42EC19F0020E42EC68
:102DF00019F0020E42EC19F0080E42EC19F0000E28
:102E000042EC19F00C0E42EC19F0000E42EC19F0F5
:102E1000060E42EC19F0120004BE1BEF17F004502E
:102E20000310021006E10104D8B019EF17F01BEFF0
:102E300017F036EF17F001C005F002C006F003C02E
:102E400007F004C008F0051E061E071E081E052A0E
:102E5000000E06220722082205C001F006C002F07B
:102E600007C003F008C004F03EEF17F001C001F006
:102E700002C002F003C003F004C004F01200056EAB
:102E80000504D8A446EF17F048EF17F059EF17F0F4
:102E900004507F0F086E08380F0B066E08500F0B9A
:102EA000076E065042EC19F0075042EC19F071EF32
:102EB00017F0020E0518D8A460EF17F062EF17F0B4
:102EC00071EF17F00450BF0F086E08380F0B066E35
:102ED00008500F0B076E065042EC19F0075042ECF9
:102EE00019F01200016E01A078EF17F07AEF17F0D9
:102EF0007DEF17F08C887EEF17F08C9801A283EF9E
:102F000017F085EF17F088EF17F08C8A89EF17F02C
:102F10008C9A01A48EEF17F090EF17F093EF17F053
:102F20008C8C94EF17F08C9C01A699EF17F09BEF17
:102F300017F09EEF17F08C8E9FEF17F08C9E12000B
:102F4000960E00019A6F000E9B6F92C09CF093C08A
:102F50009DF0000EA06F000E9F6F000EA66F000E7A
:102F6000A56F9C0E8C6F000E8D6F94C08EF095C077
:102F70008FF09A0E906F000E916FC9EC17F0000160
:102F80009F519225D96EA0519321DA6E000EDF6E0B
:102F900012008EC05BF08FC05CF0DDEF17F08CC0CC
:102FA00047F08DC048F05B0E496E000E4A6E90C02F
:102FB0004BF091C04CF052EC0FF05BC0F6FF5CC0E0
:102FC000F7FF0800F5500009D8A4E9EF17F0EBEF80
:102FD00017F0CFEF17F0000E00018D6F000E8C6F11
:102FE000120003C009F004C00AF001C007F002C0DB
:102FF00008F00BEF18F009C0D9FF0AC0DAFFDF5064
:103000000B6E094A0A2A07C0D9FF08C0DAFF0BC0B5
:10301000DFFF074A082A0506D8A00606052806E1AC
:103020000628D8A416EF18F018EF18F0FBEF17F0E9
:103030001200000E331A000E341A000E351A800EDC
:10304000361A2FC001F030C002F031C003F032C098
:1030500004F033C005F034C006F035C007F036C0C8
:1030600008F010EC09F001C02FF002C030F003C0EE
:1030700031F004C032F01200010E056E200E01186E
:103080000210D8B446EF18F048EF18F05BEF18F0D4
:10309000F70E0124036EFF0E0220046E045009E1B6
:1030A000050E035CD8A057EF18F059EF18F05BEF4E
:1030B00018F0000E056E05C001F0026A1200120E33
:1030C000F66E330EF76E000EF86E00EECBF010EEDB
:1030D00010F00900F5CFEEFFE550E150FAE101EE06
:1030E00000F0500EEE6AE806FDE100EEA7F0240EB7
:1030F000EE6AE806FDE15F6A000EF86E0001C0EFBF
:1031000012F0000E116E000E106E92EF18F00FC04C
:1031100002F0036A0DC004F00EC005F09AEC15F041
:10312000104A112A10500B24D96E11500C20DA6E5F
:10313000DF500F6E0F50D8A4A0EF18F0A2EF18F0D8
:1031400087EF18F0120003C005F004C006F001C0BC
:1031500007F002C008F005C0F6FF06C0F7FF054AF9
:10316000062A07C0D9FF08C0DAFF074A082A080064
:10317000F5CFDFFFDF50D8A4C0EF18F0C2EF18F092
:10318000ABEF18F01200076E07506BEC19F0A1ECD2
:1031900019F09FEC19F076EC19F0E806D8B4D3EFEB
:1031A00018F0D5EF18F0CBEF18F0A3EC19F0C450DD
:1031B000066E056AC3500524036E000E0620046ED9
:1031C00012000150021003100410D8B4EAEF18F0F6
:1031D000ECEF18F0F4EF18F0000E011A000E021ACE
:1031E000000E031A800E041A01C001F002C002F0A2
:1031F00003C003F004C004F01200046E04500F0B6F
:10320000026E0450F00B036E838403380F0B72ECD4
:1032100017F083861A0EE82EFED700D08396025050
:1032200072EC17F083861A0EE82EFED700D0839634
:103230001200D00E0124036EFF0E0220046E045013
:103240000AE10A0E035CD8A028EF19F02BEF19F061
:10325000010E2CEF19F0000E016E026A12000150EF
:103260000302F3CF05F0F4CF06F001500402F3504F
:10327000062602500302F350062605C001F006C0E0
:1032800002F01200036E8394035072EC17F08386F1
:103290000B0E026E620EE82EFED7022EFCD700D077
:1032A00083961200F30EC116FC0EC116C08EC050DC
:1032B000F80B0209C06EC050C70B1009C06E120097
:1032C000016EACA266EF19F068EF19F061EF19F02A
:1032D00001C0ADFF1200026E02C001F001460146BE
:1032E000C2500118830B0118C26E1200C2B27BEFEC
:1032F00019F07EEF19F0010E7FEF19F0000E1200A9
:10330000D3508F0B6009D36ED350FC0B0209D36EE0
:1033100012003132334134353642373839432A309E
:1033200023440F015B81000E5E6F5F919690120047
:10333000000E42EC19F0010E42EC19F01200C282AC
:0A3340001200C2801200C2901200B9
:020000040020DA
:08000000FFFFFFFFFFFFFFFF00
:020000040030CA
:0E00000000285E3CFFD185FF0FC00FE00F40CF
:00000001FF
