:0400000083EF00F09A
:100008005C82E1CF77F0E2CF78F0D9CF79F0DACF20
:100018007AF0F3CF7BF0F4CF7CF0F6CF7DF0F7CF1A
:100028007EF0F8CF7FF0F5CF80F0F2AA1EEF00F057
:1000380020EF00F06DEF00F0F2A425EF00F027EFBD
:1000480000F06DEF00F00B0ED76EDC0ED66EF2945A
:100058000101002B3B0E006534EF00F036EF00F095
:100068004EEF00F0000E006F012B3B0E01653FEFD5
:1000780000F041EF00F04EEF00F0000E016F022B90
:10008800170E02654AEF00F04CEF00F04EEF00F05B
:10009800000E026F010E046E010EC8EC0DF0230E67
:1000A8000001606F010E616F010E626F080E636FD1
:1000B80002C164F0656B01C166F0676B00C168F04E
:1000C800696BD4EC0EF0230E056E010E066ED4ECAF
:1000D8000FF080C0F5FF7FC0F8FF7EC0F7FF7DC03E
:1000E800F6FF7CC0F4FF7BC0F3FF7AC0DAFF79C06B
:1000F800D9FF78C0E2FF77C0E1FF5C92110024EFDE
:020108000FF0F6
:100800000054696D65723A2020253032753A2530E2
:0908100032753A25303275000002
:10081A00BFC0D9FFC0C0DAFFDECFF6FFDDCFF7FFDA
:10082A000800F550250AD8A41DEF04F01FEF04F0C4
:10083A005BEF05F0BFC0D9FFC0C0DAFFDE2A000EA9
:10084A00DD22000E0001DA6F000ED96FD9C0DDF08B
:10085A00DB69DC69000E0101406F000E3F6F62EF39
:10086A0004F0DD83BFC0D9FFC0C0DAFFDE2A000E64
:10087A00DD2262EF04F0000E0101406F010E3F6FAE
:10088A0062EF04F0BFC0D9FFC0C0DAFFDECFF6FFC7
:10089A00DDCFF7FF0800F5500001C36FC46BC451E8
:1008AA00000AD8B45BEF04F040EF04F0C351300AF9
:1008BA00D8B436EF04F040EF04F001013F51401183
:1008CA00D8B46AEF04F06CEF04F047EF04F0BFC04D
:1008DA00D9FFC0C0DAFFDECFF6FFDDCFF7FF080091
:1008EA00F5502A0AD8A47CEF04F07EEF04F0A8EFB2
:1008FA0004F0BFC0D9FFC0C0DAFFDE2A000EDD2235
:10090A00C1C0D9FFC2C0DAFFDFCFC3F0020EDE26B4
:10091A00DFCFC4F0000EDD22C3C0D9FFC4C0DAFFA6
:10092A00DECFD9F0DDCFDAF00001DABFA1EF04F0B3
:10093A009FEF04F0DCEF04F0DD81D96DDA1FD8B047
:10094A00DA2BDCEF04F0BFC0D9FFC0C0DAFFDECF7C
:10095A0087F0DDCF88F0C9EC08F087C0D9F088C0ED
:10096A00DAF0BFEF04F0BFC0D9FFC0C0DAFFDE2A59
:10097A00000EDD22BFC0D9FFC0C0DAFFDECFF6FF0E
:10098A00DDCFF7FF0800F5CFC3F0D00E0001C32575
:10099A00C46FC56BFF0EC523C55109E10A0EC45DBC
:1009AA00D8A0DAEF04F0DCEF04F0B8EF04F0BFC02F
:1009BA00D9FFC0C0DAFFDECF41F1DDCF42F141C13C
:1009CA00F6FF42C1F7FF0800F550750AD8A4F0EF08
:1009DA0004F0F2EF04F052EF05F0C1C0D9FFC2C033
:1009EA00DAFFDFCFC3F0020EDE26DFCFC4F0000E3F
:1009FA00DD22C3C0D9FFC4C0DAFFDECFC5F0DDCF28
:100A0A00C6F0C5C037F1C6C038F10101396B3A6B7F
:100A1A003B6B3C6B3D6B3E6B010E41250001C36F86
:100A2A00000E010142210001C46FBFC0D9FFC0C03E
:100A3A00DAFFC3C0DEFFC4C0DDFF3CEF05F0BDC076
:100A4A009DF0BEC09EF037C19FF038C1A0F039C1F9
:100A5A00A1F03AC1A2F03BC1A3F03CC1A4F03DC150
:100A6A00A5F03EC1A6F0CCEC06F070EF05F041C14E
:100A7A00F6FF42C1F7FF0800F550C36FC46BC451BB
:100A8A00000AD8B44BEF05F052EF05F0C351750ACE
:100A9A00D8B424EF05F052EF05F0BFC0D9FFC0C0AB
:100AAA00DAFFDE2A000EDD2270EF05F0BFC0D9FFA3
:100ABA00C0C0DAFFDECFF6FFDDCFF7FF0800F55042
:100ACA000001826F836BBDC084F0BEC085F0D7EC95
:100ADA000BF052EF05F012003FC0D9FF40C0DAFF19
:100AEA00DECFF6FFDDCFF7FF0800F550250AD8A4C0
:100AFA0081EF05F083EF05F0B7EF06F03FC0D9FFAD
:100B0A0040C0DAFFDE2A000EDD22000E0001DA6F95
:100B1A00000ED96FD9C0DDF0DB69DC69000E506EBA
:100B2A00000E4F6EC4EF05F00001DD833FC0D9FF10
:100B3A0040C0DAFFDE2A000EDD22C4EF05F0000E07
:100B4A00506E010E4F6EC4EF05F03FC0D9FF40C092
:100B5A00DAFFDECFF6FFDDCFF7FF0800F550436E70
:100B6A00446A4450000AD8B4BDEF05F0A4EF05F07A
:100B7A004350300AD8B499EF05F0A4EF05F04F506E
:100B8A005010D8B4CBEF05F0CDEF05F0AAEF05F081
:100B9A003FC0D9FF40C0DAFFDECFF6FFDDCFF7FF57
:100BAA000800F5502A0AD8A4DDEF05F0DFEF05F0BA
:100BBA0009EF06F03FC0D9FF40C0DAFFDE2A000E77
:100BCA00DD2241C0D9FF42C0DAFFDFCF43F0020E77
:100BDA00DE26DFCF44F0000EDD2243C0D9FF44C039
:100BEA00DAFFDECFD9F0DDCFDAF00001DABF02EFAB
:100BFA0006F000EF06F03CEF06F0DD81D96DDA1F52
:100C0A00D8B0DA2B3CEF06F03FC0D9FF40C0DAFF7C
:100C1A00DECF07F0DDCF08F070EC09F007C0D9F09D
:100C2A0008C0DAF020EF06F03FC0D9FF40C0DAFF73
:100C3A00DE2A000EDD223FC0D9FF40C0DAFFDECF38
:100C4A00F6FFDDCFF7FF0800F5CF43F0D00E4324BF
:100C5A00446E456AFF0E4522455009E10A0E445C7E
:100C6A00D8A03AEF06F03CEF06F019EF06F03FC0C5
:100C7A00D9FF40C0DAFFDECF51F0DDCF52F051C0CC
:100C8A00F6FF52C0F7FF0800F550750AD8A450EFD6
:100C9A0006F052EF06F0AEEF06F041C0D9FF42C0AF
:100CAA00DAFFDFCF43F0020EDE26DFCF44F0000E7C
:100CBA00DD2243C0D9FF44C0DAFFDECF45F0DDCFE5
:100CCA0046F045C047F046C048F0496A4A6A4B6A4E
:100CDA004C6A4D6A4E6A010E5124436E000E522030
:100CEA00446E3FC0D9FF40C0DAFF43C0DEFF44C0B4
:100CFA00DDFF98EF06F03DC01DF03EC01EF047C074
:100D0A001FF048C020F049C021F04AC022F04BC071
:100D1A0023F04CC024F04DC025F04EC026F0CBEC99
:100D2A0007F0CBEF06F051C0F6FF52C0F7FF0800FC
:100D3A00F550436E446A4450000AD8B4A7EF06F04F
:100D4A00AEEF06F04350750AD8B480EF06F0AEEF66
:100D5A0006F03FC0D9FF40C0DAFFDE2A000EDD22CE
:100D6A00CBEF06F03FC0D9FF40C0DAFFDECFF6FF77
:100D7A00DDCFF7FF0800F550026E036A3DC004F0AC
:100D8A003EC005F03DEC0CF0AEEF06F0120000019B
:100D9A00DCBFD2EF06F0D4EF06F0D5EF06F0DD9314
:100DAA00DCBFE2EF06F0DC5106E1DB05D8B0E0EF8C
:100DBA0006F0E2EF06F0E8EF06F0000EB06F010E63
:100DCA00AF6FECEF06F0DBC0AFF0DCC0B0F0D9C01B
:100DDA00B1F0DAC0B2F09FC0B3F0A0C0B4F0A1C0C5
:100DEA00B5F0A2C0B6F0A3C0B7F0A4C0B8F0A5C0D1
:100DFA00B9F0A6C0BAF0000EBC6F1F0EBB6F000E92
:100E0A000101226F80EF07F0BB07D8A0BC07030ED1
:100E1A00BB25D96E010EBC21DA6EB3C081F0B4C015
:100E2A0082F0B5C083F0B6C084F0B7C085F0B8C010
:100E3A0086F0B9C087F0BAC088F00A0E896F000E32
:100E4A008A6F000E8B6F000E8C6F000E8D6F000E76
:100E5A008E6F000E8F6F000E906F06EC0BF081C044
:100E6A00A7F082C0A8F083C0A9F084C0AAF085C008
:100E7A00ABF086C0ACF087C0ADF088C0AEF0000120
:100E8A00A751300FDF6EAF07D8A0B007B107D8A0BF
:100E9A00B207B3C081F0B4C082F0B5C083F0B6C067
:100EAA0084F0B7C085F0B8C086F0B9C087F0BAC080
:100EBA0088F00A0E896F000E8A6F000E8B6F000E83
:100ECA008C6F000E8D6F000E8E6F000E8F6F000EEE
:100EDA00906F15EC0AF081C0B3F082C0B4F083C001
:100EEA00B5F084C0B6F085C0B7F086C0B8F087C048
:100EFA00B9F088C0BAF00001BB51BC11D8B488EF70
:100F0A0007F08AEF07F0BAEF07F0B351B411B51141
:100F1A00B611B711B811B911BA11D8A497EF07F0E1
:100F2A0099EF07F009EF07F0B0BFA6EF07F0B0514D
:100F3A0006E1AF05D8B0A4EF07F0A6EF07F009EF76
:100F4A0007F0B2BFB1EF07F0B25108E1B105D8A07E
:100F5A00B1EF07F0B3EF07F0BAEF07F0DDB3B8EF80
:100F6A0007F0BAEF07F009EF07F09DC092F09EC0B4
:100F7A0093F0030EBB25946F010EBC21956FB1C08F
:100F8A0096F0B2C097F0A2EC0CF012000001DCBFA0
:100F9A00D1EF07F0D3EF07F0D4EF07F0DD93DCBF12
:100FAA00E1EF07F0DC5106E1DB05D8B0DFEF07F02F
:100FBA00E1EF07F0E7EF07F0000E306E010E2F6E3B
:100FCA00EBEF07F0DBC02FF0DCC030F0D9C031F016
:100FDA00DAC032F01FC033F020C034F021C035F03F
:100FEA0022C036F023C037F024C038F025C039F0CB
:100FFA0026C03AF0000E3C6E1F0E3B6E000E010139
:10100A00226F7EEF08F03B06D8A03C06030E3B2475
:10101A00D96E010E3C20DA6E33C001F034C002F002
:10102A0035C003F036C004F037C005F038C006F00A
:10103A0039C007F03AC008F00A0E096E000E0A6EAF
:10104A00000E0B6E000E0C6E000E0D6E000E0E6E74
:10105A00000E0F6E000E106E6FEC0BF001C027F041
:10106A0002C028F003C029F004C02AF005C02BF002
:10107A0006C02CF007C02DF008C02EF02750300F04
:10108A00DF6E2F06D8A030063106D8A0320633C04C
:10109A0001F034C002F035C003F036C004F037C0A6
:1010AA0005F038C006F039C007F03AC008F00A0E59
:1010BA00096E000E0A6E000E0B6E000E0C6E000E0C
:1010CA000D6E000E0E6E000E0F6E000E106E8EEC80
:1010DA000AF001C033F002C034F003C035F004C096
:1010EA0036F005C037F006C038F007C039F008C03E
:1010FA003AF03B503C10D8B485EF08F087EF08F07F
:10110A00B8EF08F033503410351036103710381055
:10111A0039103A10D8A494EF08F096EF08F008EFC7
:10112A0008F030BEA3EF08F0305006E12F04D8B023
:10113A00A1EF08F0A3EF08F008EF08F032BEAEEF17
:10114A0008F0325008E13104D8A0AEEF08F0B0EF51
:10115A0008F0B8EF08F00001DDB3B6EF08F0B8EF19
:10116A0008F008EF08F01DC012F01EC013F0030EBD
:10117A003B24146E010E3C20156E31C016F032C0AD
:10118A0017F0FAEC0CF01200000E00018F6F000E3F
:10119A008E6F000E8D6F000E8C6FD6EF08F0874BA6
:1011AA00882B87C0F6FF88C0F7FF0800F550200A91
:1011BA00D8B4E2EF08F0E4EF08F0D4EF08F087C003
:1011CA00F6FF88C0F7FF0800F5CF89F0F70E8925EA
:1011DA008A6F8B6BFF0E8B238B5109E1050E8A5D9B
:1011EA00D8A0FAEF08F0FCEF08F0D4EF08F006EF09
:1011FA0009F0000E8D6F010E8C6F874B882B3CEF28
:10120A0009F087C0F6FF88C0F7FF0800F550896F1C
:10121A008A6B8A51000AD8B415EF09F03CEF09F03D
:10122A0089512B0AD8B402EF09F0060AD8B4FEEFA6
:10123A0008F03CEF09F08EC081F08FC082F0000EFA
:10124A00846F0A0E836F62EC10F087C0F6FF88C0C5
:10125A00F7FF0800F5500001815F000E825B300E37
:10126A0081258E6F000E82218F6F02EF09F087C0F1
:10127A00F6FF88C0F7FF0800F5CF89F0D00E892560
:10128A008A6F8B6BFF0E8B238B5109E10A0E8A5DE5
:10129A00D8A052EF09F054EF09F020EF09F08C5171
:1012AA008D11D8A45BEF09F05DEF09F06BEF09F03F
:1012BA008EC089F08FC08AF0891F8A1F894B8A2BBA
:1012CA0089C087F08AC088F06FEF09F08EC087F076
:1012DA008FC088F01200000E0F6E000E0E6E000E08
:1012EA000D6E000E0C6E7CEF09F0074A082A07C043
:1012FA00F6FF08C0F7FF0800F550200AD8B488EFB7
:10130A0009F08AEF09F07AEF09F007C0F6FF08C082
:10131A00F7FF0800F5CF09F0F70E09240A6E0B6AE9
:10132A00FF0E0B220B5009E1050E0A5CD8A0A0EFB4
:10133A0009F0A2EF09F07AEF09F0ACEF09F0000E1C
:10134A000D6E010E0C6E074A082AE1EF09F007C07C
:10135A00F6FF08C0F7FF0800F550096E0A6A0A503E
:10136A00000AD8B4BBEF09F0E1EF09F009502B0AE3
:10137A00D8B4A8EF09F0060AD8B4A4EF09F0E1EF4F
:10138A0009F00EC001F00FC002F0000E046E0A0E42
:10139A00036E89EC10F007C0F6FF08C0F7FF0800DB
:1013AA00F550015E000E025A300E01240E6E000E38
:1013BA0002200F6EA8EF09F007C0F6FF08C0F7FF7A
:1013CA000800F5CF09F0D00E09240A6E0B6AFF0E49
:1013DA000B220B5009E10A0E0A5CD8A0F7EF09F0BC
:1013EA00F9EF09F0C6EF09F00C500D10D8A400EF80
:1013FA000AF002EF0AF010EF0AF00EC009F00FC06F
:10140A000AF0091E0A1E094A0A2A09C007F00AC078
:10141A0008F014EF0AF00EC007F00FC008F012002F
:10142A0020EE91F0070EDE6AE806FDE2000189511E
:10143A008A118B118C118D118E118F119011D8B4C4
:10144A0029EF0AF02BEF0AF07DEF0AF0010E996FEF
:10145A0039EF0AF0D89089378A378B378C378D372E
:10146A008E378F379037992B90AF3EEF0AF040EFC7
:10147A000AF02FEF0AF0D8909137923793379437C2
:10148A0095379637973798378951815D8A518259AE
:10149A008B5183598C5184598D5185598E51865956
:1014AA008F51875990518859D8A05EEF0AF060EFA2
:1014BA000AF071EF0AF08951815F8A51825B8B5180
:1014CA00835B8C51845B8D51855B8E51865B8F511A
:1014DA00875B9051885B9181D89090338F338E339C
:1014EA008D338C338B338A338933992F40EF0AF04B
:1014FA0091C081F092C082F093C083F094C084F0CE
:10150A0095C085F096C086F097C087F098C088F09D
:10151A00120020EE11F0070EDE6AE806FDE209501D
:10152A000A100B100C100D100E100F101010D8B45A
:10153A00A1EF0AF0A3EF0AF0F5EF0AF0010E196E17
:10154A00B1EF0AF0D89009360A360B360C360D364A
:10155A000E360F361036192A10AEB6EF0AF0B8EF6B
:10156A000AF0A7EF0AF0D89011361236133614365D
:10157A0015361636173618360950015C0A500258C5
:10158A000B5003580C5004580D5005580E5006586D
:10159A000F50075810500858D8A0D6EF0AF0D8EFC5
:1015AA000AF0E9EF0AF00950015E0A50025A0B509C
:1015BA00035A0C50045A0D50055A0E50065A0F5031
:1015CA00075A1050085A1180D89010320F320E3232
:1015DA000D320C320B320A320932192EB8EF0AF0E8
:1015EA0011C001F012C002F013C003F014C004F0DD
:1015FA0015C005F016C006F017C007F018C008F0AD
:10160A001200000189518A118B118C118D118E11D2
:10161A008F119011D8B414EF0BF016EF0BF05EEFA8
:10162A000BF0010E916F24EF0BF0D89089378A37AF
:10163A008B378C378D378E378F379037912B90AF0A
:10164A0029EF0BF02BEF0BF01AEF0BF08951815DAC
:10165A008A5182598B5183598C5184598D5185599C
:10166A008E5186598F51875990518859D8A040EF89
:10167A000BF042EF0BF052EF0BF08951815F8A5168
:10168A00825B8B51835B8C51845B8D51855B8E5160
:10169A00865B8F51875B9051885BD89090338F33EC
:1016AA008E338D338C338B338A338933912F2BEFDF
:1016BA000BF081C081F082C082F083C083F084C0C5
:1016CA0084F085C085F086C086F087C087F088C020
:1016DA0088F0120009500A100B100C100D100E1091
:1016EA000F101010D8B47CEF0BF07EEF0BF0C6EFA2
:1016FA000BF0010E116E8CEF0BF0D89009360A36FA
:10170A000B360C360D360E360F361036112A10AE41
:10171A0091EF0BF093EF0BF082EF0BF00950015CA5
:10172A000A5002580B5003580C5004580D500558D3
:10173A000E5006580F50075810500858D8A0A8EF56
:10174A000BF0AAEF0BF0BAEF0BF00950015E0A504A
:10175A00025A0B50035A0C50045A0D50055A0E5097
:10176A00065A0F50075A1050085AD89010320F32A2
:10177A000E320D320C320B320A320932112E93EF2D
:10178A000BF001C001F002C002F003C003F004C074
:10179A0004F005C005F006C006F007C007F008C04F
:1017AA0008F01200000184518511D8B4DFEF0BF064
:1017BA00E1EF0BF0EAEF0BF084518511D8A4E8EFC2
:1017CA000BF0EAEF0BF0EFEF0BF08251BBEC10F0ED
:1017DA003CEF0CF020EE09F08451D9268551DA222B
:1017EA00DE50DE10D8B4FCEF0BF0FEEF0BF019EF71
:1017FA000CF020EE09F08451D9268551DA2210EE38
:10180A0003F08451E1268551E222DE50E65CE6507F
:10181A00800A8A6FDE50800A8A59D8B017EF0CF016
:10182A0019EF0CF03CEF0CF020EE03F08451D926AE
:10183A008551DA22DECF86F0DDCF87F084C0D9FF6A
:10184A0085C0DAFFDECF88F0DDCF89F086518825A2
:10185A00D96E87518921DA6E82C0DFFF20EE03F04C
:10186A008451D9268551DA22DE2A000EDD221200A1
:10187A0004500510D8B444EF0CF046EF0CF04FEFCB
:10188A000CF004500510D8A44DEF0CF04FEF0CF0FB
:10189A0054EF0CF00250D2EC10F0A1EF0CF020EE55
:1018AA0009F00450D9260550DA22DE50DE10D8B4E9
:1018BA0061EF0CF063EF0CF07EEF0CF020EE09F014
:1018CA000450D9260550DA2210EE03F00450E1261E
:1018DA000550E222DE50E65CE650800A0A6EDE50CF
:1018EA00800A0A58D8B07CEF0CF07EEF0CF0A1EF1A
:1018FA000CF020EE03F00450D9260550DA22DECF90
:10190A0006F0DDCF07F004C0D9FF05C0DAFFDECF4D
:10191A0008F0DDCF09F006500824D96E07500920D7
:10192A00DA6E02C0DFFF20EE03F00450D92605501C
:10193A00DA22DE2A000EDD2212000001DDA1A8EF64
:10194A000CF0AAEF0CF0B4EF0CF094C08BF095C039
:10195A008CF092C08DF093C08EF048EC0FF000012D
:10196A0097BFBAEF0CF0BCEF0CF0C2EF0CF096C0C8
:10197A009BF097C09CF0C6EF0CF0000E9C6F000E17
:10198A009B6F000E9A6F000E996FD9EF0CF0000E44
:10199A00836F200E826F92C084F093C085F0D7ECDB
:1019AA000BF00001994B9A2B9B51995D9A51800A31
:1019BA00986F9C51800A9859D8A0E6EF0CF0E8EF8E
:1019CA000CF0CCEF0CF0DDB1EDEF0CF0EFEF0CF01A
:1019DA00F9EF0CF094C08BF095C08CF092C08DF0AA
:1019EA0093C08EF048EC0FF012000001DDA100EF69
:1019FA000DF002EF0DF00CEF0DF014C00BF015C056
:101A0A000CF012C00DF013C00EF0B2EC0FF017BEBE
:101A1A0011EF0DF013EF0DF019EF0DF016C01BF0DA
:101A2A0017C01CF01DEF0DF0000E1C6E000E1B6E91
:101A3A00000E1A6E000E196E2FEF0DF0000E036ED7
:101A4A00200E026E12C004F013C005F03DEC0CF03B
:101A5A00194A1A2A1B50195C1A50800A186E1C500F
:101A6A00800A1858D8A03CEF0DF03EEF0DF023EF96
:101A7A000DF00001DDB144EF0DF046EF0DF050EF2F
:101A8A000DF014C00BF015C00CF012C00DF013C00D
:101A9A000EF0B2EC0FF012000F0E9516F30E95161B
:101AAA00000EFBEC0DF0340E0001846FF10EE82EEF
:101ABA00FED7842FFCD700D0030E76EC10F00D0E63
:101ACA000001846FFB0EE82EFED7842FFCD700D0CE
:101ADA00030E76EC10F01D0E0001846F910EE82EB5
:101AEA00FED7842FFCD7030E76EC10F0020E76ECAC
:101AFA0010F0020E76EC10F0080E76EC10F0000EE4
:101B0A0076EC10F00C0E76EC10F0000E76EC10F07D
:101B1A00060E76EC10F012000001856F00018505B3
:101B2A00D8A49AEF0DF09CEF0DF0AEEF0DF08451B2
:101B3A007F0F886F88390F0B866F88510F0B876F5D
:101B4A00865176EC10F00001875176EC10F0C7EF61
:101B5A000DF0020E8519D8A4B5EF0DF0B7EF0DF010
:101B6A00C7EF0DF08451BF0F886F88390F0B866F4E
:101B7A0088510F0B876F865176EC10F00001875160
:101B8A0076EC10F01200056E0504D8A4CFEF0DF024
:101B9A00D1EF0DF0E2EF0DF004507F0F086E083818
:101BAA000F0B066E08500F0B076E06509CEC10F0D8
:101BBA0007509CEC10F0FAEF0DF0020E0518D8A4AD
:101BCA00E9EF0DF0EBEF0DF0FAEF0DF00450BF0F57
:101BDA00086E08380F0B066E08500F0B076E06507A
:101BEA009CEC10F007509CEC10F012000001816F81
:101BFA00000181A103EF0EF005EF0EF008EF0EF0E1
:101C0A008C8809EF0EF08C9881A30EEF0EF010EF7E
:101C1A000EF013EF0EF08C8A14EF0EF08C9A81A559
:101C2A0019EF0EF01BEF0EF01EEF0EF08C8C1FEF6B
:101C3A000EF08C9C81A724EF0EF026EF0EF029EF10
:101C4A000EF08C8E2AEF0EF08C9E1200016E01A00F
:101C5A0031EF0EF033EF0EF036EF0EF08C8837EFDF
:101C6A000EF08C9801A23CEF0EF03EEF0EF041EF21
:101C7A000EF08C8A42EF0EF08C9A01A447EF0EF018
:101C8A0049EF0EF04CEF0EF08C8C4DEF0EF08C9C61
:101C9A0001A652EF0EF054EF0EF057EF0EF08C8EB5
:101CAA0058EF0EF08C9E1200C7EC10F0F8EC10F012
:101CBA00010E0001846F010E91EC0DF0230E01015B
:101CCA00496F010E4A6F010E4B6F080E4C6F02C12D
:101CDA004DF14E6B01C14FF1506B00C151F1526B86
:101CEA0082EC0EF0230E0001856F010E866F90ECD8
:101CFA000FF07EEF0EF083EF00F04D0E0101536FEF
:101D0A00010E546F49C155F14AC156F1000E596F7F
:101D1A00000E586F000E5F6F000E5E6F550E436F18
:101D2A00010E446F4BC145F14CC146F1530E476F4A
:101D3A00010E486FABEC0EF0010158514925D96EDE
:101D4A0059514A21DA6E000EDF6E120045C1C7F002
:101D5A0046C1C8F0C0EF0EF043C1BDF044C1BEF0A9
:101D6A00C70E0001BF6F000EC06F47C1C1F048C166
:101D7A00C2F00DEC04F0C7C0F6FFC8C0F7FF0800B8
:101D8A00F5500009D8A4CCEF0EF0CEEF0EF0B1EF6B
:101D9A000EF0000E0101446F000E436F1200640E34
:101DAA0000016A6F000E6B6F60C06CF061C06DF06D
:101DBA00000E706F000E6F6F000E766F000E756F5B
:101DCA006C0E536E000E546E62C055F063C056F02E
:101DDA006A0E576E000E586EFDEC0EF000016F5140
:101DEA006025D96E70516121DA6E000EDF6E120025
:101DFA0055C059F056C05AF011EF0FF053C03DF0DC
:101E0A0054C03EF0590E3F6E000E406E57C041F06E
:101E1A0058C042F071EC05F059C0F6FF5AC0F7FFFE
:101E2A000800F5500009D8A41DEF0FF01FEF0FF0BE
:101E3A0003EF0FF0000E546E000E536E1200E00E08
:101E4A00F66E210EF76E000EF86E00EEC9F010EE77
:101E5A0010F00900F5CFEEFFE550E150FAE101EE8E
:101E6A0000F0370EEE6AE806FDE10001DD6BDC6B7F
:101E7A00DB6BDA6BD96B5B6A5C905C92000EF86E76
:101E8A00000159EF0EF0000E0001916F000E906FE5
:101E9A005BEF0FF08FC082F0836B8DC084F08EC031
:101EAA0085F0D7EC0BF00001904B912B90518B25CC
:101EBA00D96E91518C21DA6EDF508F6F8F51D8A471
:101ECA0069EF0FF06BEF0FF04FEF0FF01200010EFA
:101EDA000001856F200E81198211D8B477EF0FF0B7
:101EEA0079EF0FF08CEF0FF0F70E8125836FFF0E5D
:101EFA008221846F845109E1050E835DD8A088EFA1
:101F0A000FF08AEF0FF08CEF0FF0000E856F85C08F
:101F1A0081F0826B1200000E0001886F000E876F3D
:101F2A00A3EF0FF087518525D96E88518621DA6E85
:101F3A00DF50F4EC0FF00001874B882B8751852581
:101F4A00D96E88518621DA6EDF50D8A4AFEF0FF030
:101F5A00B1EF0FF097EF0FF01200000E116E000EA6
:101F6A00106EC3EF0FF00FC002F0036A0DC004F049
:101F7A000EC005F03DEC0CF0104A112A10500B244B
:101F8A00D96E11500C20DA6EDF500F6E0F50D8A4A4
:101F9A00D1EF0FF0D3EF0FF0B8EF0FF01200000EF1
:101FAA00086E000E076EE5EF0FF007500524D96E94
:101FBA0008500620DA6EDF502FEC10F0074A082A84
:101FCA0007500524D96E08500620DA6EDF50D8A4CF
:101FDA00F1EF0FF0F3EF0FF0DAEF0FF0120000015C
:101FEA00846F000184510F0B826F8451F00B836F51
:101FFA00838483390F0BFBEC0DF083861A0EE82ECF
:10200A00FED700D0839600018251FBEC0DF0838647
:10201A001A0EE82EFED700D083961200200E011861
:10202A000210D8B41BEF10F01DEF10F02EEF10F0D5
:10203A00F70E0124036EFF0E0220046E045009E11C
:10204A00050E035CD8A02CEF10F02EEF10F02EEF47
:10205A0010F01200046E04500F0B026E0450F00BC5
:10206A00036E838403380F0B2BEC0EF083861A0E53
:10207A00E82EFED700D0839602502BEC0EF0838612
:10208A001A0EE82EFED700D083961200D00E000159
:10209A008125836FFF0E8221846F84510AE10A0E23
:1020AA00835DD8A05BEF10F05EEF10F0010E5FEFDA
:1020BA0010F0000E816F826B1200000181518303C0
:1020CA00F3CF85F0F4CF86F081518403F35086274D
:1020DA0082518303F350862785C081F086C082F03F
:1020EA0012000001836F839400018351FBEC0DF011
:1020FA0083860B0E0001826F620EE82EFED7822FB6
:10210A00FCD700F08396120001500302F3CF05F0CA
:10211A00F4CF06F001500402F350062602500302DF
:10212A00F350062605C001F006C002F01200036E45
:10213A00839403502BEC0EF083860B0E026E620E14
:10214A00E82EFED7022EFCD700D083961200D59C2B
:10215A00D59AD596D550F80B0509D56E0B0ED76EC4
:10216A00DC0ED66EF28AF294D58E12000001816FCF
:10217A00ACA2C2EF10F0C4EF10F0BDEF10F081C0B6
:10218A00ADFF1200E7EC10F0DDEC10F051EC0DF0B1
:10219A00ACEC10F0FFEC10F01200016EACA2D8EF1C
:1021AA0010F0DAEF10F0D3EF10F001C0ADFF12001B
:1021BA00000E0F015E6F5C9193805C9393825C9535
:1021CA0093841200D3508F0B6009D36ED350FC0B4B
:1021DA000209D36E12003132334134353642373870
:1021EA0039432A302344000E76EC10F0010E76ECC7
:0E21FA0010F01200D09EF28EF28C1200120035
:020000040020DA
:08000000FFFFFFFFFFFFFFFF00
:020000040030CA
:0E00000000285E3CFFD185FF0FC00FE00F40CF
:00000001FF
