:04000000ACEF00F071
:100008005D82F2AA0AEF00F00CEF00F02FEF00F08B
:10001800F2A411EF00F013EF00F02FEF00F00B0E39
:10002800D76EDC0ED66EF2940001650765BF21EF2E
:1000380000F01FEF00F02FEF00F03B0E656F660732
:1000480066BF2BEF00F029EF00F02FEF00F0000E55
:10005800666F000E656FF2A834EF00F036EF00F01F
:1000680040EF00F0F2A23BEF00F03DEF00F040EF70
:1000780000F00001662BF292F0A645EF00F047EF82
:1000880000F051EF00F0F0A04CEF00F04EEF00F060
:1000980051EF00F00001652BF090F0A856EF00F04A
:1000A80058EF00F0AAEF00F0F0A25DEF00F05FEF6C
:1000B80000F0AAEF00F00001C551D8B466EF00F0D7
:1000C80068EF00F08CEF00F06551D8A46EEF00F0F7
:1000D80070EF00F07EEF00F06651D8A476EF00F0E4
:1000E80078EF00F07EEF00F0000E666F000E656F8F
:1000F8008CEF00F06551D8A484EF00F086EF00F093
:100108008BEF00F03B0E656F66078CEF00F065071C
:10011800C551D8B492EF00F095EF00F0010E96EFBC
:1001280000F0000EC56FD5BE9CEF00F09FEF00F009
:10013800010EA0EF00F0000EFF0A016E013201323D
:10014800D55001187F0B0118D56EF0925D92110001
:0401580083EF0AF037
:100800000054696D65723A2020253032753A2530E2
:1008100032753A253032750054696D65723A202080
:10082000202020253032753A25303275000040C036
:10083000D9FF41C0DAFFDECFF6FFDDCFF7FF0800BA
:10084000F550250AD8A427EF04F029EF04F05CEF57
:1008500005F040C0D9FF41C0DAFFDE2A000EDD22DC
:10086000000E0001616F000E606F60C05CF0626995
:100870006369000E516E000E506E69EF04F05C82E9
:1008800040C0D9FF41C0DAFFDE2A000EDD2269EF49
:1008900004F0000E516E010E506E69EF04F040C07E
:1008A000D9FF41C0DAFFDECFF6FFDDCFF7FF08004A
:1008B000F550446E456A4550000AD8B462EF04F022
:1008C00049EF04F04450300AD8B43FEF04F049EF48
:1008D00004F050505110D8B470EF04F072EF04F0EF
:1008E0004FEF04F040C0D9FF41C0DAFFDECFF6FF82
:1008F000DDCFF7FF0800F5502A0AD8A482EF04F0F4
:1009000084EF04F0AEEF04F040C0D9FF41C0DAFF3D
:10091000DE2A000EDD2242C0D9FF43C0DAFFDFCF5E
:1009200044F0020EDE26DFCF45F0000EDD2244C08B
:10093000D9FF45C0DAFFDECF60F0DDCF61F0000106
:1009400061BFA7EF04F0A5EF04F0E1EF04F05C80D5
:10095000606D611FD8B0612BE1EF04F040C0D9FF9A
:1009600041C0DAFFDECF08F0DDCF09F06DEC06F014
:1009700008C060F009C061F0C5EF04F040C0D9FFC5
:1009800041C0DAFFDE2A000EDD2240C0D9FF41C09F
:10099000DAFFDECFF6FFDDCFF7FF0800F5CF44F03A
:1009A000D00E4424456E466AFF0E4622465009E1A9
:1009B0000A0E455CD8A0DFEF04F0E1EF04F0BEEFD3
:1009C00004F040C0D9FF41C0DAFFDECF52F0DDCFE6
:1009D00053F052C0F6FF53C0F7FF0800F550750AF8
:1009E000D8A4F5EF04F0F7EF04F053EF05F042C0A0
:1009F000D9FF43C0DAFFDFCF44F0020EDE26DFCF9F
:100A000045F0000EDD2244C0D9FF45C0DAFFDECF3D
:100A100046F0DDCF47F046C048F047C049F04A6A8B
:100A20004B6A4C6A4D6A4E6A4F6A010E5224446EFC
:100A3000000E5320456E40C0D9FF41C0DAFF44C0CC
:100A4000DEFF45C0DDFF3DEF05F03EC01EF03FC0BC
:100A50001FF048C020F049C021F04AC022F04BC02E
:100A600023F04CC024F04DC025F04EC026F04FC0FE
:100A700027F071EC05F070EF05F052C0F6FF53C09F
:100A8000F7FF0800F550446E456A4550000AD8B497
:100A90004CEF05F053EF05F04450750AD8B425EF3C
:100AA00005F053EF05F040C0D9FF41C0DAFFDE2A60
:100AB000000EDD2270EF05F040C0D9FF41C0DAFF23
:100AC000DECFF6FFDDCFF7FF0800F550036E046AB6
:100AD0003EC005F03FC006F0F2EC07F053EF05F022
:100AE0001200000163BF77EF05F079EF05F07AEFB0
:100AF00005F05C9263BF87EF05F0635106E1620584
:100B0000D8B085EF05F087EF05F08DEF05F0000E0A
:100B1000316E010E306E91EF05F062C030F063C0AF
:100B200031F060C032F061C033F020C034F021C039
:100B300035F022C036F023C037F024C038F025C08D
:100B400039F026C03AF027C03BF0000E3D6E1F0E74
:100B50003C6E000E876F23EF06F03C06D8A03D06E2
:100B6000680E3C24D96E000E3D20DA6E34C002F0CF
:100B700035C003F036C004F037C005F038C006F0C9
:100B800039C007F03AC008F03BC009F00A0E0A6EFF
:100B9000000E0B6E000E0C6E000E0D6E000E0E6E33
:100BA000000E0F6E000E106E000E116E8AEC07F034
:100BB00002C028F003C029F004C02AF005C02BF0C1
:100BC00006C02CF007C02DF008C02EF009C02FF091
:100BD0002850300FDF6E3006D8A031063206D8A07C
:100BE000330634C002F035C003F036C004F037C01D
:100BF00005F038C006F039C007F03AC008F03BC035
:100C000009F00A0E0A6E000E0B6E000E0C6E000E3E
:100C10000D6E000E0E6E000E0F6E000E106E000EAA
:100C2000116E12EC07F002C034F003C035F004C0BE
:100C300036F005C037F006C038F007C039F008C0FC
:100C40003AF009C03BF03C503D10D8B42AEF06F012
:100C50002CEF06F05CEF06F03450351036103710EC
:100C6000381039103A103B10D8A439EF06F03BEF9A
:100C700006F0ADEF05F031BE48EF06F0315006E169
:100C80003004D8B046EF06F048EF06F0ADEF05F0BF
:100C900033BE53EF06F0335008E13204D8A053EFCF
:100CA00006F055EF06F05CEF06F05CB25AEF06F086
:100CB0005CEF06F0ADEF05F01EC013F01FC014F09E
:100CC000680E3C24156E000E3D20166E32C017F0E3
:100CD00033C018F0BBEC08F01200000E106E000ECE
:100CE0000F6E000E0E6E000E0D6E79EF06F0084AC4
:100CF000092A08C0F6FF09C0F7FF0800F550200ACE
:100D0000D8B485EF06F087EF06F077EF06F008C05D
:100D1000F6FF09C0F7FF0800F5CF0AF0F70E0A2426
:100D20000B6E0C6AFF0E0C220C5009E1050E0B5CD9
:100D3000D8A09DEF06F09FEF06F077EF06F0A9EF41
:100D400006F0000E0E6E010E0D6E084A092ADEEF47
:100D500006F008C0F6FF09C0F7FF0800F5500A6E5C
:100D60000B6A0B50000AD8B4B8EF06F0DEEF06F0BD
:100D70000A502B0AD8B4A5EF06F0060AD8B4A1EFA2
:100D800006F0DEEF06F00FC002F010C003F0000E18
:100D9000056E0A0E046ED3EC0AF008C0F6FF09C017
:100DA000F7FF0800F550025E000E035A300E0224D1
:100DB0000F6E000E0320106EA5EF06F008C0F6FFC0
:100DC00009C0F7FF0800F5CF0AF0D00E0A240B6E19
:100DD0000C6AFF0E0C220C5009E10A0E0B5CD8A025
:100DE000F4EF06F0F6EF06F0C3EF06F00D500E102C
:100DF000D8A4FDEF06F0FFEF06F00DEF07F00FC0EF
:100E00000AF010C00BF00A1E0B1E0A4A0B2A0AC079
:100E100008F00BC009F011EF07F00FC008F010C088
:100E200009F0120020EE12F0070EDE6AE806FDE27D
:100E30000A500B100C100D100E100F101010111086
:100E4000D8B425EF07F027EF07F079EF07F0010E90
:100E50001A6E35EF07F0D8900A360B360C360D3681
:100E60000E360F36103611361A2A11AE3AEF07F049
:100E70003CEF07F02BEF07F0D890123613361436FC
:100E8000153616361736183619360A50025C0B50CE
:100E900003580C5004580D5005580E5006580F506A
:100EA00007581050085811500958D8A05AEF07F0A9
:100EB0005CEF07F06DEF07F00A50025E0B50035A2B
:100EC0000C50045A0D50055A0E50065A0F50075A2E
:100ED0001050085A1150095A1280D890113210320D
:100EE0000F320E320D320C320B320A321A2E3CEF18
:100EF00007F012C002F013C003F014C004F015C0D4
:100F000005F016C006F017C007F018C008F019C0A9
:100F100009F012000A500B100C100D100E100F10DB
:100F200010101110D8B497EF07F099EF07F0E1EF28
:100F300007F0010E126EA7EF07F0D8900A360B36B5
:100F40000C360D360E360F3610361136122A11AE0B
:100F5000ACEF07F0AEEF07F09DEF07F00A50025C30
:100F60000B5003580C5004580D5005580E5006589D
:100F70000F5007581050085811500958D8A0C3EF07
:100F800007F0C5EF07F0D5EF07F00A50025E0B50EF
:100F9000035A0C50045A0D50055A0E50065A0F5061
:100FA000075A1050085A1150095AD890113210326D
:100FB0000F320E320D320C320B320A32122EAEEFDD
:100FC00007F002C002F003C003F004C004F005C043
:100FD00005F006C006F007C007F008C008F009C019
:100FE00009F0120005500610D8B4F9EF07F0FBEF36
:100FF00007F004EF08F005500610D8A402EF08F03F
:1010000004EF08F009EF08F003501EEC0BF056EF68
:1010100008F020EE09F00550D9260650DA22DE50FD
:10102000DE10D8B416EF08F018EF08F033EF08F030
:1010300020EE09F00550D9260650DA2210EE03F012
:101040000550E1260650E222DE50E65CE650800ABA
:101050000B6EDE50800A0B58D8B031EF08F033EF3A
:1010600008F056EF08F020EE03F00550D9260650A0
:10107000DA22DECF07F0DDCF08F005C0D9FF06C0C9
:10108000DAFFDECF09F0DDCF0AF007500924D96E70
:1010900008500A20DA6E03C0DFFF20EE03F005508F
:1010A000D9260650DA22DE2A000EDD22120005ECD7
:1010B0000BF045EC0BF0010E056E010E4CEC09F047
:1010C000880E00019C6F000E9D6F010E9E6F080E32
:1010D0009F6F6751A06FA16BA0BFA1076651A26F60
:1010E000A36BA2BFA3076551A46FA56BA4BFA507FF
:1010F000ADEC09F0880E066E000E076E63EC0AF088
:1011000042EC0AF000016551D8A489EF08F08BEF9A
:1011100008F080EF08F06651D8A491EF08F093EF43
:1011200008F080EF08F0C551D8A499EF08F09BEFC4
:1011300008F080EF08F08D84030E0001B46F8A0E72
:10114000B36F550EE82EFED7B32FFCD7B42FFAD7C6
:1011500000D08D94030E0001B46F8A0EB36F550E4C
:10116000E82EFED7B32FFCD7B42FFAD700D080EFEC
:1011700008F0ACEF00F05CA0C0EF08F0C2EF08F0A0
:10118000CCEF08F015C00CF016C00DF013C00EF037
:1011900014C00FF020EC0AF018BED1EF08F0D3EF26
:1011A00008F0D9EF08F017C01CF018C01DF0DDEFF3
:1011B00008F0000E1D6E000E1C6E000E1B6E000E61
:1011C0001A6EEFEF08F0000E046E200E036E13C0CF
:1011D00005F014C006F0F2EC07F01A4A1B2A1C5066
:1011E0001A5C1B50800A196E1D50800A1958D8A02D
:1011F000FCEF08F0FEEF08F0E3EF08F05CB003EF5F
:1012000009F005EF09F00FEF09F015C00CF016C05A
:101210000DF013C00EF014C00FF020EC0AF0120015
:101220000F0E9516F30E9516000E7FEC09F0340E96
:10123000056EF20EE82EFED7052EFCD7030EE6EC67
:101240000AF00D0E056EFC0EE82EFED7052EFCD71B
:10125000030EE6EC0AF01D0E056E910EE82EFED789
:10126000052EFCD700F0030EE6EC0AF0020EE6ECC9
:101270000AF0020EE6EC0AF0080EE6EC0AF0000EA8
:10128000E6EC0AF00C0EE6EC0AF0000EE6EC0AF0D2
:10129000060EE6EC0AF01200066E0604D8A453EF20
:1012A00009F055EF09F066EF09F005507F0F096E60
:1012B00009380F0B076E09500F0B086E0750E6EC4C
:1012C0000AF00850E6EC0AF07EEF09F0020E06186C
:1012D000D8A46DEF09F06FEF09F07EEF09F005502B
:1012E000BF0F096E09380F0B076E09500F0B086E00
:1012F0000750E6EC0AF00850E6EC0AF01200026E25
:1013000002A085EF09F087EF09F08AEF09F08C88D9
:101310008BEF09F08C9802A290EF09F092EF09F0A0
:1013200095EF09F08C8A96EF09F08C9A02A49BEF56
:1013300009F09DEF09F0A0EF09F08C8CA1EF09F006
:101340008C9C02A6A6EF09F0A8EF09F0ABEF09F01C
:101350008C8EACEF09F08C9E1200A00E0001A66FDF
:10136000000EA76F9CC0A8F09DC0A9F0000EAC6F46
:10137000000EAB6F000EB26F000EB16FA80E546E70
:10138000000E556E9EC056F09FC057F0A60E586EC8
:10139000000E596ED6EC09F00001AB519C25D96EB8
:1013A000AC519D21DA6E000EDF6E120056C05AF06D
:1013B00057C05BF0EAEF09F054C03EF055C03FF073
:1013C0005A0E406E000E416E58C042F059C043F0B4
:1013D00017EC04F05AC0F6FF5BC0F7FF0800F550A9
:1013E0000009D8A4F6EF09F0F8EF09F0DCEF09F0F6
:1013F000000E556E000E546E1200010E066E200E89
:1014000002180310D8B407EF0AF009EF0AF01CEF36
:101410000AF0F70E0224046EFF0E0320056E05503D
:1014200009E1050E045CD8A018EF0AF01AEF0AF0E3
:101430001CEF0AF0000E066E06C002F0036A1200EE
:10144000000E126E000E116E31EF0AF010C003F0A4
:10145000046A0EC005F00FC006F0F2EC07F0114A66
:10146000122A11500C24D96E12500D20DA6EDF5062
:10147000106E1050D8A43FEF0AF041EF0AF026EFAB
:101480000AF01200010E056E010E4CEC09F0880EF8
:1014900000019C6F000E9D6F180E9E6F080E9F6FCF
:1014A0006651A06FA16BA0BFA1076551A26FA36B8E
:1014B000A2BFA307ADEC09F0880E066E000E076E02
:1014C00063EC0AF01200000E096E000E086E74EF55
:1014D0000AF008500624D96E09500720DA6EDF5052
:1014E000A1EC0AF0084A092A08500624D96E0950CE
:1014F0000720DA6EDF50D8A480EF0AF082EF0AF0FE
:1015000069EF0AF01200780EF66E160EF76E000EF6
:10151000F86E00EEB5F010EE11F00900F5CFEEFF19
:10152000E550E150FAE100EE60F03C0EEE6AE806AC
:10153000FDE15C6A5D905D92000EF86E000157EF70
:1015400008F0056E05500F0B036E0550F00B046E8E
:10155000838404380F0B7FEC09F083861A0EE82E83
:10156000FED700D0839603507FEC09F083861A0ED5
:10157000E82EFED700D083961200D00E0224046E0F
:10158000FF0E0320056E05500AE10A0E045CD8A088
:10159000CCEF0AF0CFEF0AF0010ED0EF0AF0000E08
:1015A000026E036A120002500402F3CF06F0F4CF79
:1015B00007F002500502F350072603500402F350CF
:1015C000072606C002F007C003F01200046E8394E1
:1015D00004507FEC09F083860B0E036E620EE82E3A
:1015E000FED7032EFCD700D083961200D59CD59A47
:1015F000D596D550F80B0509D56E0B0ED76EDC0EBF
:10160000D66EF28AF294D59E120033EC0BF012ECF7
:101610000BF010EC09F0F6EC0AF04CEC0BF029ECB6
:101620000BF01200000E0F015E6F5C9193805C93D3
:1016300093825C9593845F9596941200026EACA29F
:1016400024EF0BF026EF0BF01FEF0BF002C0ADFF05
:101650001200F288F292F19CF086F090F19AF088F4
:10166000F092F1981200D3508F0B6009D36ED350D3
:10167000FC0B0209D36E120031323341343536424D
:09168000373839432A30234401B4
:10168A00000EE6EC0AF0010EE6EC0AF01200D09E1B
:06169A00F28EF28C12003A
:020000040020DA
:08000000FFFFFFFFFFFFFFFF00
:020000040030CA
:0E00000000285E3CFFD185FF0FC00FE00F40CF
:00000001FF
