:0400000044EF18F0C1
:10080000003E54656D702E20416D6269656E7465A1
:100810003C0D0A002D202D202D202D202D202D20B7
:100820002D202D0D0A0054203D20252E3266204318
:100830000D0A00696E66006E616E0000000E000118
:10084000816F40C084F041C085F042C086F043C053
:1008500087F087BF30EF04F02EEF04F044EF04F090
:10086000010E816F84C001F085C002F086C003F0E4
:1008700087C004F0C6EC18F001C084F002C085F017
:1008800003C086F004C087F0000E0001836F000EE5
:10089000826FAFC071F0B0C072F08151D8B453EF25
:1008A00004F055EF04F069EF04F08151D8A45BEF38
:1008B00004F05DEF04F063EF04F0000E676F2B0EA1
:1008C000666F67EF04F0000E676F2D0E666F66C0EF
:1008D00081F084C001F085C002F086C003F087C0BB
:1008E00004F028EC15F001040210D8A47AEF04F00B
:1008F0007CEF04F0AFEF04F000018151D8B483EF36
:1009000004F085EF04F08EEF04F081C000F1710770
:10091000D8A07207000E836F010E826F000E822531
:10092000016E010E8321026E330E036E080E046EFB
:1009300088EC18F00001FD0E7127FF0E72233EC0F7
:1009400012F03FC013F0000E146E010E156E71C050
:1009500016F072C017F0B3EC16F01AEF09F084C06D
:1009600001F085C002F086C003F087C004F028ECD7
:1009700015F001500210D8A4C0EF04F0C2EF04F04B
:10098000E2EF04F000018151D8B4C9EF04F0CBEFDD
:1009900004F0D4EF04F081C000F17107D8A0720711
:1009A000000E836F010E826F000E8225016E010E14
:1009B0008321026E370E036E080E046E88EC18F069
:1009C0009AEF04F0000E0001886F000E896F800E10
:1009D0008A6F3F0E8B6F000E706F000E6F6F84C0BA
:1009E00001F085C002F086C003F087C004F0000E5D
:1009F000056E000E066E000E076E000E086E0CEC03
:100A000016F0D8B006EF05F008EF05F0E7EF05F0B7
:100A100015EF05F073C088F074C089F075C08AF0D6
:100A200076C08BF000016F4B702B88C016F089C028
:100A300017F08AC018F08BC019F0000E1A6E000E65
:100A40001B6E200E1C6E410E1D6E7BEC0BF016C053
:100A500073F017C074F018C075F019C076F000017B
:100A60007351845D016E74518559026E75518659BA
:100A7000036E76518759046EF0EC16F004BE4CEF0D
:100A800005F004500310021009E1020E015CD8A029
:100A90004CEF05F04EEF05F00AEF05F073C02FF0B4
:100AA00074C030F075C031F076C032F084C033F0DD
:100AB00085C034F086C035F087C036F0A6EC14F05F
:100AC000D8A065EF05F067EF05F00AEF05F000012B
:100AD0008851845D016E89518559026E8A5186590B
:100AE000036E8B518759046EF0EC16F004BE86EF4E
:100AF00005F004500310021007E1020E015CD8B0AB
:100B000084EF05F086EF05F0CEEF05F088C084F0A5
:100B100089C085F08AC086F08BC087F0E7EF05F0CA
:100B200088C011F089C012F08AC013F08BC014F095
:100B3000000E156E000E166E200E176E410E186E0A
:100B400090EC0DF011C088F012C089F013C08AF04B
:100B500014C08BF000016F07D8A070078851845D26
:100B6000016E89518559026E8A518659036E8B51E7
:100B70008759046EF0EC16F004BECCEF05F004507B
:100B80000310021007E1020E015CD8B0CAEF05F0B5
:100B9000CCEF05F0CEEF05F086EF05F084C02FF026
:100BA00085C030F086C031F087C032F088C033F0A5
:100BB00089C034F08AC035F08BC036F0A6EC14F052
:100BC000D8A0E5EF05F0E7EF05F090EF05F044C0A1
:100BD00069F069C06AF00001B2BFF1EF05F0F3EF10
:100BE00005F0F9EF05F0B1C062F0B2C063F0FDEFBF
:100BF00005F0000E636F060E626F62C06DF063C099
:100C00006EF06D4B6E2B660E6A19D8A40AEF06F0D3
:100C10000CEF06F02CEF06F070BF13EF06F011EFAB
:100C200006F01FEF06F0000E886F000E896F800E31
:100C30008A6F3F0E8B6F000E706F000E6F6F670E26
:100C40006919D8B426EF06F028EF06F02CEF06F06D
:100C50006F516D2770516E23000E786F000E776F05
:100C600084C079F085C07AF086C07BF087C07CF0C4
:100C700088C073F089C074F08AC075F08BC076F0BC
:100C8000BDEF06F079C011F07AC012F07BC013F00E
:100C90007CC014F088C015F089C016F08AC017F027
:100CA0008BC018F090EC0DF011C02AF012C02BF0A0
:100CB00013C02CF014C02DF0E8EC10F02AC07DF029
:100CC0002BC07EF02CC07FF02DC080F07DC001F0E5
:100CD0007EC002F07FC003F080C004F023EC14F06B
:100CE00001C06BF002C06CF079C02FF07AC030F018
:100CF0007BC031F07CC032F07DC01AF07EC01BF0AA
:100D00007FC01CF080C01DF088C016F089C017F0AD
:100D10008AC018F08BC019F07BEC0BF016C033F0D2
:100D200017C034F018C035F019C036F0FEEC17F0DB
:100D30002FC079F030C07AF031C07BF032C07CF047
:100D400088C011F089C012F08AC013F08BC014F073
:100D5000000E156E000E166E200E176E410E186EE8
:100D600090EC0DF011C088F012C089F013C08AF029
:100D700014C08BF00001774B782B6D51775D785163
:100D8000800A456E6E51800A4558D8A0CAEF06F019
:100D9000CCEF06F042EF06F088C016F089C017F0DD
:100DA0008AC018F08BC019F0000E1A6E000E1B6E70
:100DB000A00E1C6E400E1D6E7BEC0BF016C07DF07D
:100DC00017C07EF018C07FF019C080F079C02FF0F6
:100DD0007AC030F07BC031F07CC032F07DC033F09F
:100DE0007EC034F07FC035F080C036F0A6EC14F041
:100DF000D8B0FDEF06F0FFEF06F00AEF07F0000EA7
:100E000000017D6F000E7E6F000E7F6F000E806F01
:100E100033EF07F079C001F07AC002F07BC003F035
:100E20007CC004F07DC005F07EC006F07FC007F0F6
:100E300080C008F00CEC16F0D8A021EF07F023EFEB
:100E400007F033EF07F000016BB129EF07F02BEF4C
:100E500007F033EF07F0000E7D6F000E7E6F000E7F
:100E60007F6F000E806F84C001F085C002F086C0E5
:100E700003F087C004F07DC005F07EC006F07FC09F
:100E800007F080C008F01BEC09F001C079F002C047
:100E90007AF003C07BF004C07CF079C02FF07AC0F8
:100EA00030F07BC031F07CC032F0000E1A6E000EC4
:100EB0001B6E200E1C6E410E1D6E73C016F074C0AA
:100EC00017F075C018F076C019F07BEC0BF016C067
:100ED00033F017C034F018C035F019C036F0A6EC66
:100EE00014F0D8A076EF07F078EF07F0A1EF07F045
:100EF00000016F4B702B73C016F074C017F075C0F3
:100F000018F076C019F0000E1A6E000E1B6E200E3F
:100F10001C6E410E1D6E7BEC0BF016C073F017C0FB
:100F200074F018C075F019C076F0660E00016A19E9
:100F3000D8A49DEF07F09FEF07F0A1EF07F06D4BEE
:100F40006E2B73C088F074C089F075C08AF076C0CB
:100F50008BF06FC060F070C061F0000E0001686F30
:100F6000000E656F000E646F000E786F000E776FD5
:100F70009FEF08F079C011F07AC012F07BC013F037
:100F80007CC014F088C015F089C016F08AC017F034
:100F90008BC018F090EC0DF011C02AF012C02BF0AD
:100FA00013C02CF014C02DF0E8EC10F02AC07DF036
:100FB0002BC07EF02CC07FF02DC080F07DC001F0F2
:100FC0007EC002F07FC003F080C004F023EC14F078
:100FD00002BEF6EF07F0025007E10A0E015CD8B03E
:100FE000F4EF07F0F6EF07F006EF08F07DC001F030
:100FF0007EC002F07FC003F080C004F023EC14F048
:1010000001C06BF002C06CF00BEF08F0000E0001A5
:101010006C6F090E6B6F00016851D8A412EF08F0D5
:1010200014EF08F03CEF08F061BF1BEF08F019EF78
:1010300008F03CEF08F0000E8225D96E010E8321E6
:10104000DA6E2E0EDF6E824B832B7107D8A07207EB
:10105000010E686F3CEF08F0000E8225D96E010E7C
:101060008321DA6E300EDF6E824B832B7107D8A09E
:1010700072076407D8A0650764516511D8A443EFCF
:1010800008F045EF08F02CEF08F0000E8225D96E2D
:10109000010E8321DA6E6B51300FDF6E824B832B92
:1010A0007107D8A0720779C02FF07AC030F07BC0EA
:1010B00031F07CC032F07DC01AF07EC01BF07FC0E2
:1010C0001CF080C01DF088C016F089C017F08AC0DF
:1010D00018F08BC019F07BEC0BF016C033F017C082
:1010E00034F018C035F019C036F0FEEC17F02FC000
:1010F00079F030C07AF031C07BF032C07CF088C02B
:1011000011F089C012F08AC013F08BC014F0000EE9
:10111000156E000E166E200E176E410E186E90ECB6
:101120000DF011C088F012C089F013C08AF014C00D
:101130008BF000016007D8A06107774B782B6D51C9
:10114000775D7851800A456E6E51800A4558D8B057
:10115000ACEF08F0AEEF08F0BCEF08F083BFBAEFD9
:1011600008F0835109E14B0E825DD8A0BAEF08F078
:10117000BCEF08F0BAEF07F0000E786F4F0E776FF4
:10118000000E7725D96E010E7821DA6E000EDF6E23
:10119000000E456E010E466E8251455E8351465AE1
:1011A00077514524016E78514620026E000E036E81
:1011B000010E046E82C005F083C006F0D6EC17F075
:1011C00000018251775D826F83517859836F81511D
:1011D000D8A4EDEF08F0F0EF08F0010EF1EF08F001
:1011E000000E776F786B8151D8B4F9EF08F0FBEF00
:1011F00008F006EF09F08207D8A08307000E8225C9
:10120000D96E010E8321DA6E81C0DFFF7751715FE5
:101210007851725B3EC012F03FC013F0000E822581
:10122000146E010E8321156E71C016F072C017F096
:10123000B3EC16F012000450800B0D6E0450042421
:101240000F6E03AE26EF09F028EF09F029EF09F041
:101250000F800F50D8B42FEF09F031EF09F046EFAF
:1012600009F00F28D8A437EF09F039EF09F041EF62
:1012700009F0000E016E000E026E000E036E000EED
:10128000046E038E000E046E4EEF09F0000E016E28
:10129000000E026E000E036E000E046E0850800BEE
:1012A0000E6E0D500E18D8B458EF09F05AEF09F031
:1012B0005BEF09F00D8C085008240E6E07AE63EF4B
:1012C00009F065EF09F066EF09F00E800E50D8B412
:1012D0006CEF09F06EEF09F083EF09F00E28D8A447
:1012E00074EF09F076EF09F07EEF09F0000E056E5D
:1012F000000E066E000E076E000E086E078E000EC2
:10130000086E8BEF09F0000E056E000E066E000EE3
:10131000076E000E086E0F500E5CD8B092EF09F009
:1013200094EF09F0BBEF09F00DAC99EF09F09BEFDA
:1013300009F09DEF09F0800E0D1A0FC010F00EC0DD
:101340000FF010C00EF001C010F005C001F010C089
:1013500005F002C010F006C002F010C006F003C095
:1013600010F007C003F010C007F004C010F008C070
:1013700004F010C008F0000E106E0F500EC009F0FF
:101380000A6A095E000E0A5A0ABED0EF09F00A5036
:1013900009E11A0E095CD8A0D0EF09F0D2EF09F0EC
:1013A00009EF0AF00150021003100410D8A4DBEF7B
:1013B00009F0DEEF09F0010EDFEF09F0000E106E0C
:1013C000000E016E000E026E000E036E000E046E23
:1013D0000EC00FF012EF0AF010A0F1EF09F0F3EFDA
:1013E00009F0F9EF09F0D89010300109106EFBEF09
:1013F00009F0D890103201A000EF0AF002EF0AF0D5
:1014000003EF0AF0108E0434043203320232013248
:101410000F2A0E500F5CD8A010EF0AF012EF0AF05E
:10142000ECEF09F00DBC17EF0AF019EF0AF059EFD5
:101430000AF00F50D8A41FEF0AF021EF0AF02BEFAB
:101440000AF0000E016E000E026E000E036E000E1A
:10145000046E7AEF0BF00550012606500222075069
:1014600003220850042204A038EF0AF03AEF0AF0F1
:10147000E6EF0AF010A03FEF0AF041EF0AF047EF65
:101480000AF0D89010300109106E49EF0AF0D89098
:10149000103201A04EEF0AF050EF0AF051EF0AF0BF
:1014A000108E043404320332023201320F2AE6EF86
:1014B0000AF00550015C06500258075003580450CA
:1014C000800A096E0850800A0958D8B06AEF0AF0FD
:1014D0006CEF0AF097EF0AF00150055C096E0250BC
:1014E00006580A6E035007580B6E045008580C6ECD
:1014F000FF0E0924016EFF0E0A20026EFF0E0B2064
:10150000036EFF0E0C20046E800E0D1A106C10502E
:10151000D8A48DEF0AF08FEF0AF09FEF0AF0010ECA
:101520000126000E0222032204229FEF0AF005503A
:10153000015E0650025A0750035A0850045A0150DF
:10154000021003100410D8A4A8EF0AF0AAEF0AF0C2
:10155000DFEF0AF01050D8A4B0EF0AF0B2EF0AF0B3
:10156000DFEF0AF0000E016E000E026E000E036E39
:10157000000E046E7AEF0BF0D89001360236033677
:10158000043610AEC6EF0AF0C8EF0AF0C9EF0AF051
:10159000018010A0CEEF0AF0D0EF0AF0D4EF0AF0ED
:1015A000D8801036D6EF0AF0D89010360F50D8B445
:1015B000DCEF0AF0DEEF0AF0DFEF0AF00F0603AE11
:1015C000E4EF0AF0E6EF0AF0BCEF0AF0000E0E6E50
:1015D00010AEEDEF0AF0EFEF0AF007EF0BF010C0DE
:1015E00009F07F0E0916D8B4F8EF0AF0FAEF0AF006
:1015F000FEEF0AF0010E0E6E07EF0BF001A003EFF5
:101600000BF005EF0BF007EF0BF0FAEF0AF00E50BE
:10161000D8B40DEF0BF00FEF0BF03AEF0BF0010E1B
:101620000126000E02220322042204A01AEF0BF06E
:101630001CEF0BF03AEF0BF001C009F002C00AF00A
:1016400003C00BF004C00CF00C340C320B320A3225
:10165000093209C001F00AC002F00BC003F00CC04F
:1016600004F00F28D8B437EF0BF039EF0BF03AEF56
:101670000BF00F2A0F28D8B440EF0BF042EF0BF01D
:101680004AEF0BF00F50D8A448EF0BF04AEF0BF0E5
:101690005CEF0BF0000E016E000E026E000E036E8A
:1016A000000E046E0F50D8A458EF0BF05AEF0BF059
:1016B0005CEF0BF0000E0D6E0FA061EF0BF063EF0F
:1016C0000BF066EF0BF0038E67EF0BF0039ED890E4
:1016D0000F30046E0DAE6FEF0BF071EF0BF072EF89
:1016E0000BF0048E01C001F002C002F003C003F051
:1016F00004C004F012001950800B226E19501924F6
:10170000286E18AE86EF0BF088EF0BF089EF0BF028
:1017100028802850D8B48FEF0BF091EF0BF0A4EF96
:101720000BF02828D8A497EF0BF099EF0BF0A1EF5E
:101730000BF0000E166E000E176E000E186E000EE7
:10174000196E188EACEF0BF0000E166E000E176EB1
:10175000000E186E000E196E1D50800B221A1D50BF
:101760001D24276E1CAEB7EF0BF0B9EF0BF0BAEFEC
:101770000BF027802750D8B4C0EF0BF0C2EF0BF06E
:10178000D5EF0BF02728D8A4C8EF0BF0CAEF0BF069
:10179000D2EF0BF0000E1A6E000E1B6E000E1C6EC8
:1017A000000E1D6E1C8EDDEF0BF0000E1A6E000E8B
:1017B0001B6E000E1C6E000E1D6E2750D8B4E3EF9A
:1017C0000BF0E5EF0BF0EDEF0BF02850D8A4EBEFAA
:1017D0000BF0EDEF0BF0F7EF0BF0000E166E000EB6
:1017E000176E000E186E000E196E8FEF0DF01C5064
:1017F0001602F3CF2DF0F4CF2EF02D50236E246A75
:10180000256A266A2E50296E2A6A2B6A2C6A1B507A
:101810001702F3CF2DF0F4CF2EF02D502326000E1B
:101820002422252226222E502926000E2A222B226F
:101830002C221A501802F3CF2DF0F4CF2EF02D5099
:101840002326000E2422252226222E502926000E91
:101850002A222B222C2225C026F024C025F023C0CA
:1018600024F0236A1A501702F3CF2DF0F4CF2EF094
:101870002D5023262E502422000E2522000E262233
:101880001B501602F3CF2DF0F4CF2EF02D5023264F
:101890002E502422000E2522000E262225C026F0DE
:1018A00024C025F023C024F0236A1A501602F3CF77
:1018B0002DF0F4CF2EF02D5023262E502422000E92
:1018C0002522000E26221C501702F3CF2DF0F4CF54
:1018D0002EF02D5029262E502A22000E2B22000EEB
:1018E0002C221B501802F3CF2DF0F4CF2EF02D50E8
:1018F00029262E502A22000E2B22000E2C221C50AC
:101900001802F3CF2DF0F4CF2EF02D501E6E2E5076
:101910001F6E206A216A20C021F01FC020F01EC067
:101920001FF01E6A1E5029261F502A2220502B22EB
:1019300021502C2223C01EF024C01FF025C020F00F
:1019400026C021F0190EAAEF0CF0D89021322032D7
:101950001F321E32E82EA5EF0CF01E5029261F5014
:101960002A2220502B2221502C2225C026F024C0D0
:1019700025F023C024F0236A275028C01EF01F6AD8
:101980001E26000E1F22820E1E242D6EFF0E1F200B
:101990002E6EE0EF0CF0D89029362A362B362C36F6
:1019A00026AED5EF0CF0D7EF0CF0D8EF0CF0298075
:1019B000D89023362436253626362D06D8A02E0676
:1019C0002BAEE5EF0CF0E7EF0CF0CBEF0CF0000ED8
:1019D000276E26AEEEEF0CF0F0EF0CF014EF0DF0EA
:1019E000FF0E23141E6EFF0E24141F6EFF0E25140F
:1019F000206E7F0E2614216E1E501F102010211005
:101A0000D8B405EF0DF007EF0DF00BEF0DF0010E60
:101A1000276E14EF0DF029A010EF0DF012EF0DF06E
:101A200014EF0DF007EF0DF02750D8B41AEF0DF0BA
:101A30001CEF0DF040EF0DF0010E2926000E2A22BA
:101A40002B222C222CA027EF0DF029EF0DF040EFD8
:101A50000DF029C01EF02AC01FF02BC020F02CC0B2
:101A600021F02134213220321F321E321EC029F0D3
:101A70001FC02AF020C02BF021C02CF02D4A2E2AA6
:101A80002EBE4BEF0DF02E5008E12D28D8A04BEFC5
:101A90000DF04DEF0DF057EF0DF0000E296E000E1A
:101AA0002A6E800E2B6E7F0E2C6E85EF0DF02EBEF3
:101AB00064EF0DF02E5006E12D04D8B062EF0DF06A
:101AC00064EF0DF070EF0DF0000E296E000E2A6E1F
:101AD000000E2B6E000E2C6E000E226E85EF0DF0A8
:101AE0002DC028F0FF0E2916FF0E2A167F0E2B168A
:101AF000000E2C1628A07FEF0DF081EF0DF082EF85
:101B00000DF02B8ED89028302C6E22502C1229C02C
:101B100016F02AC017F02BC018F02CC019F01200D4
:101B20001450800B216E14501424286E13AE9BEFBA
:101B30000DF09DEF0DF09EEF0DF028802850D8B4E9
:101B4000A4EF0DF0A6EF0DF0BBEF0DF02828D8A400
:101B5000ACEF0DF0AEEF0DF0B6EF0DF0000E116E24
:101B6000000E126E000E136E000E146E138E000E19
:101B7000146EC3EF0DF0000E116E000E126E000E0B
:101B8000136E000E146E1850800B211A1850182472
:101B9000296E17AECEEF0DF0D0EF0DF0D1EF0DF0B6
:101BA00029802950D8B4D7EF0DF0D9EF0DF0EEEF22
:101BB0000DF02928D8A4DFEF0DF0E1EF0DF0E9EFEB
:101BC0000DF0000E156E000E166E000E176E000E54
:101BD000186E178E000E186EF6EF0DF0000E156ED3
:101BE000000E166E000E176E000E186E15501610B1
:101BF00017101810D8A4FFEF0DF001EF0EF019EF39
:101C00000EF0000E116E000E126E000E136E000E1E
:101C1000146E800E13127F0E14122150141211C074
:101C200011F012C012F013C013F014C014F05CEFE6
:101C30000FF02850D8A41FEF0EF021EF0EF02BEF7D
:101C40000EF0000E116E000E126E000E136E000EDE
:101C5000146E5CEF0FF0295028C019F01A6A195E53
:101C6000000E1A5A7F0E1924226E000E1A20236EBF
:101C700011C01DF012C01EF013C01FF014C020F0E0
:101C8000000E116E000E126E000E136E000E146E1A
:101C9000000E246E000E256E000E266E000E276EBE
:101CA000000E296E8CEF0EF02950D8B45AEF0EF0CA
:101CB0005CEF0EF073EF0EF0D8901D361E361F3617
:101CC0002036D890113612361336143627AE6BEF05
:101CD0000EF06DEF0EF06EEF0EF01180D8902436FE
:101CE00025362636273615501D5C16501E581750BF
:101CF0001F5818502058D8A080EF0EF082EF0EF039
:101D00008BEF0EF0278C15501D5E16501E5A175083
:101D10001F5A1850205A292A190E296492EF0EF0E2
:101D200094EF0EF054EF0EF01D501E101F102010F7
:101D3000D8B49DEF0EF09FEF0EF0B7EF0EF02480B9
:101D4000B7EF0EF0D890113612361336143627AE90
:101D5000ACEF0EF0AEEF0EF0AFEF0EF01180D890BA
:101D600024362536263627362206D8A0230613AE7B
:101D7000BCEF0EF0BEEF0EF0A2EF0EF0000E296EDB
:101D800027AEC5EF0EF0C7EF0EF0EBEF0EF0FF0E33
:101D90002414196EFF0E25141A6EFF0E26141B6EE6
:101DA0007F0E27141C6E19501A101B101C10D8B46B
:101DB000DCEF0EF0DEEF0EF0E2EF0EF0010E296E1A
:101DC000EBEF0EF011A0E7EF0EF0E9EF0EF0EBEF06
:101DD0000EF0DEEF0EF02950D8B4F1EF0EF0F3EF75
:101DE0000EF017EF0FF0010E1126000E1222132233
:101DF000142214A0FEEF0EF000EF0FF017EF0FF01B
:101E000011C019F012C01AF013C01BF014C01CF05E
:101E10001C341C321B321A32193219C011F01AC08C
:101E200012F01BC013F01CC014F0224A232A23BE58
:101E300022EF0FF0235008E12228D8A022EF0FF064
:101E400024EF0FF02FEF0FF0000E236E2268000E2C
:101E5000116E000E126E000E136E000E146E23BE75
:101E60003CEF0FF0235006E12204D8B03AEF0FF018
:101E70003CEF0FF04AEF0FF0000E236E000E226EC3
:101E8000000E116E000E126E000E136E000E146E18
:101E9000000E216E22C028F028A051EF0FF053EF62
:101EA0000FF056EF0FF0138E57EF0FF0139ED890F0
:101EB0002830146E0DEF0EF0120049C0D9FF4AC051
:101EC000DAFFDECFF6FFDDCFF7FF0800F550250A79
:101ED000D8A46DEF0FF06FEF0FF0D3EF10F049C003
:101EE000D9FF4AC0DAFFDE2A000EDD22000E000113
:101EF000B06F000EAF6FAFC05FF0B169B26949C09B
:101F0000D9FF4AC0DAFFDECFF6FFDDCFF7FF0800CA
:101F1000F5502E0AD8A48FEF0FF091EF0FF0FEEFDF
:101F20000FF0000EB26F000EB16F49C0D9FF4AC06A
:101F3000DAFFDE2A000EDD2249C0D9FF4AC0DAFFEF
:101F4000DECFF6FFDDCFF7FF0800F5502A0AD8A450
:101F5000ACEF0FF0AEEF0FF0CBEF0FF049C0D9FFB1
:101F60004AC0DAFFDE2A000EDD224BC0D9FF4CC08A
:101F7000DAFFDFCF4DF0020EDE26DFCF4EF0000E8F
:101F8000DD224DC0D9FF4EC0DAFFDECFB1F0DDCF8C
:101F9000B2F0FEEF0FF049C0D9FF4AC0DAFFDECF42
:101FA00007F0DDCF08F07EEC13F007C0B1F008C0F9
:101FB000B2F0E2EF0FF049C0D9FF4AC0DAFFDE2AE3
:101FC000000EDD2249C0D9FF4AC0DAFFDECFF6FF9E
:101FD000DDCFF7FF0800F5CF4DF0D00E4D244E6E4B
:101FE0004F6AFF0E4F224F5009E10A0E4E5CD8A0F7
:101FF000FCEF0FF0FEEF0FF0DBEF0FF049C0D9FF61
:102000004AC0DAFFDECF59F0DDCF5AF059C0F6FFF3
:102010005AC0F7FF0800F5CF58F01BEF10F0594AEF
:102020005A2A34EF10F06C0E586E34EF10F0000E98
:10203000586E34EF10F058504D6E4E6A4E50000AF4
:10204000D8B425EF10F017EF10F04D504C0AD8B46B
:102050000FEF10F02A0AD8B413EF10F00A0AD8B420
:102060000FEF10F017EF10F059C0F6FF5AC0F7FF4E
:102070000800F550660AD8A440EF10F042EF10F0C7
:10208000CAEF10F078EF10F04BC0D9FF4CC0DAFF68
:10209000DFCF4DF0040EDE26DFCF4EF0000EDD2246
:1020A0004DC0D9FF4EC0DAFFDECF50F0DECF51F089
:1020B000DECF52F0DECF53F08DEF10F04BC0D9FFE2
:1020C0004CC0DAFFDFCF4DF0040EDE26DFCF4EF03E
:1020D000000EDD224DC0D9FF4EC0DAFFDECF50F03A
:1020E000DECF51F0DECF52F0DECF53F08DEF10F0A7
:1020F00058504D6E4E6A4E50000AD8B482EF10F020
:102100008DEF10F04D504C0AD8B45EEF10F0200A5D
:10211000D8B444EF10F08DEF10F0010E59244D6E3D
:10212000000E5A204E6E49C0D9FF4AC0DAFF4DC09A
:10213000DEFF4EC0DDFFB4EF10F047C03EF048C0F8
:102140003FF050C040F051C041F052C042F053C087
:1021500043F059C0F6FF5AC0F7FF0800F5CF44F02E
:102160001EEC04F0E7EF10F059C0F6FF5AC0F7FF7D
:102170000800F5504D6E4E6A4E50000AD8B4C3EFB9
:1021800010F0CAEF10F04D50660AD8B49DEF10F071
:10219000CAEF10F049C0D9FF4AC0DAFFDE2A000EAC
:1021A000DD22E7EF10F049C0D9FF4AC0DAFFDECFE9
:1021B000F6FFDDCFF7FF0800F550026E036A47C057
:1021C00004F048C005F0A7EC15F0CAEF10F01200BB
:1021D000A7C03AF0A8C03BF0A9C03CF0AAC03DF0AF
:1021E0002AC03AF02BC03BF02CC03CF02DC03DF093
:1021F000810E2E6EFF0E2F6E3AC030F03BC031F0D4
:102200003CC032F03DC033F0180E0CEF11F0D89006
:102210003332323231323032E82E07EF11F03050A3
:102220002E24386E000E2F20396E39BE21EF11F0AA
:10223000395009E1170E385CD8A021EF11F023EFD7
:1022400011F02DEF11F02AC02AF02BC02BF02CC07A
:102250002CF02DC02DF0F0EF11F039BE32EF11F05F
:1022600034EF11F0A4EF11F038C02EF0FF0E2F6EF6
:10227000FF0E306E7F0E316E000E326E2E6643EF13
:1022800011F04BEF11F032343232313230322F3222
:102290002E2E3EEF11F02FC034F030C035F031C09B
:1022A00036F032C037F034503A142E6E35503B14AD
:1022B0002F6E36503C14306E37503D14316E2E5018
:1022C0002F1030103110D8A468EF11F06AEF11F020
:1022D0006CEF11F023EF11F03AC02EF03BC02FF05D
:1022E0003CC030F03DC031F0200E7CEF11F0D890B2
:1022F000313230322F322E32E82E77EF11F02E505D
:102300002F1030103110D8B488EF11F08AEF11F08F
:1023100092EF11F034503A2635503B2236503C2291
:1023200037503D22341C2E6E351C2F6E361C306EFD
:10233000371C316E2E503A162F503B1630503C163B
:1023400031503D16E8EF11F03AC02EF03BC02FF0AF
:102350003CC030F03DC031F0200EB4EF11F0D89009
:10236000313230322F322E32E82EAFEF11F02E50B4
:102370002F1030103110D8A4C0EF11F0C2EF11F0BF
:10238000CCEF11F0000E3A6E000E3B6E000E3C6E6C
:10239000000E3D6EE8EF11F0D8903A342E6E3B34CB
:1023A0002F6E3C34306E3D34316E2E502F10301075
:1023B0003110D8B4DEEF11F0E0EF11F0E8EF11F0DA
:1023C000000E3A6E000E3B6E800E3C6EBF0E3D6EF0
:1023D0003AC02AF03BC02BF03CC02CF03DC02DF0A1
:1023E0001200106E1050D8B4F8EF11F0FAEF11F09F
:1023F0001CEF12F00BBE01EF12F0FFEF11F01CEF1B
:1024000012F008C00CF009C00DF00AC00EF00BC0AD
:102410000FF00C1E0D1E0E1E0F1E0C2A000E0D229C
:102420000E220F220CC012F00DC013F00EC014F0DB
:102430000FC015F024EF12F008C012F009C013F01D
:102440000AC014F00BC015F0085009100A100B1048
:10245000D8A42DEF12F02FEF12F039EF12F0000E8A
:10246000086E000E096E000E0A6E000E0B6ECAEFAB
:1024700012F0960E116E43EF12F0112AD890153219
:10248000143213321232000E12140C6E000E13149A
:102490000D6E000E14140E6EFE0E15140F6E0C5001
:1024A0000D100E100F10D8A458EF12F05AEF12F0C2
:1024B0003DEF12F068EF12F0112A010E1226000E05
:1024C000132214221522D8901532143213321232EC
:1024D000000E12140C6E000E13140D6E000E141468
:1024E0000E6EFF0E15140F6E0C500D100E100F1007
:1024F000D8A47DEF12F07FEF12F05CEF12F087EFBF
:1025000012F01106D890123613361436153614BE52
:102510008CEF12F08EEF12F096EF12F0020E1160B7
:1025200094EF12F096EF12F081EF12F011B09BEFE2
:1025300012F09DEF12F09EEF12F0149ED89011321F
:1025400011C00CF00D6A0E6A0F6A0CC00FF00E6A13
:102550000D6A0C6A0C5012120D5013120E50141208
:102560000F5015121050D8B4B8EF12F0BAEF12F0A5
:10257000C2EF12F00BBEC1EF12F0BFEF12F0C2EFCC
:1025800012F0158E12C008F013C009F014C00AF042
:1025900015C00BF0120044EC19F055EC19F00BECDF
:1025A00019F0800E0E6E250E0F6E000E106E000ECE
:1025B000116E23EC17F0000EA8EC18F003C008F021
:1025C00004C009F00A6A0B6A000EF1EC11F008C0B1
:1025D00016F009C017F00AC018F00BC019F00A0E67
:1025E0001A6E280E1B6EA00E1C6E3B0E1D6E7BEC31
:1025F0000BF016C0D7F017C0D8F018C0D9F019C02A
:10260000DAF0000E056E000E066E000E076EBF0EAD
:10261000086ED7C001F0D8C002F0D9C003F0DAC00C
:1026200004F01BEC09F001C011F002C012F003C06D
:1026300013F004C014F00A0E156ED70E166E230E9A
:10264000176E3C0E186E90EC0DF011C0D7F012C052
:10265000D8F013C0D9F014C0DAF0B30E0001926FB5
:10266000000E936F260E946F080E956FD7C096F0EC
:10267000D8C097F0D9C098F0DAC099F085EC17F07F
:10268000010E026E080E036E56EC17F0B30E026ECA
:10269000000E036E56EC17F0140E026E080E036E59
:1026A00056EC17F0D7C02FF0D8C030F0D9C031F0B9
:1026B000DAC032F0000E336E000E346EF00E356E5E
:1026C000410E366EA6EC14F0D8A069EF13F06BEF54
:1026D00013F06EEF13F08D806FEF13F08D90060EF8
:1026E0005E6E130E5D6EAE0EE82EFED75D2EFCD72D
:1026F0005E2EFAD7DBEF12F000EF00F0000E0F6E47
:10270000000E0E6E000E0D6E000E0C6E8AEF13F0B2
:10271000074A082A07C0F6FF08C0F7FF0800F5506F
:10272000200AD8B496EF13F098EF13F088EF13F067
:1027300007C0F6FF08C0F7FF0800F5CF09F0F70E55
:1027400009240A6E0B6AFF0E0B220B5009E1050EDD
:102750000A5CD8A0AEEF13F0B0EF13F088EF13F0DF
:10276000BAEF13F0000E0D6E010E0C6E074A082A28
:10277000EFEF13F007C0F6FF08C0F7FF0800F550B1
:10278000096E0A6A0A50000AD8B4C9EF13F0EFEFD5
:1027900013F009502B0AD8B4B6EF13F0060AD8B4D8
:1027A000B2EF13F0EFEF13F00EC001F00FC002F024
:1027B000000E046E0A0E036EF8EC18F007C0F6FF68
:1027C00008C0F7FF0800F550015E000E025A300EF7
:1027D00001240E6E000E02200F6EB6EF13F007C03C
:1027E000F6FF08C0F7FF0800F5CF09F0D00E092466
:1027F0000A6E0B6AFF0E0B220B5009E10A0E0A5CEF
:10280000D8A005EF14F007EF14F0D4EF13F00C503C
:102810000D10D8A40EEF14F010EF14F01EEF14F00A
:102820000EC009F00FC00AF0091E0A1E094A0A2A42
:1028300009C007F00AC008F022EF14F00EC007F03C
:102840000FC008F01200033404340A6E0A50D8A4F2
:102850002CEF14F02EEF14F038EF14F0000E016E90
:10286000000E026E000E036E000E046EA5EF14F053
:1028700001C005F002C006F003C007F004C008F074
:10288000200E48EF14F0D890083207320632053295
:10289000E82E43EF14F00550096E038EFF0E01166B
:1028A000FF0E0216FF0E0316000E0416960E0A5EA9
:1028B0000ABE5FEF14F05DEF14F075EF14F00A50EC
:1028C000800A970FD8B067EF14F069EF14F06BEF40
:1028D00014F02EEF14F0D890043203320232013299
:1028E0000A3E6BEF14F08DEF14F01F0E0A647BEFBD
:1028F00014F07DEF14F085EF14F02EEF14F0D89063
:1029000001360236033604360A060A50D8A48BEF85
:1029100014F08DEF14F07FEF14F00950D8B493EF5A
:1029200014F095EF14F09DEF14F0041E031E021E28
:10293000016C000E02220322042201C001F002C039
:1029400002F003C003F004C004F01200000E2F14C4
:10295000376E000E3014386E800E3114396E7F0ED3
:1029600032143A6E3750381039103A10D8A4BBEFF1
:1029700014F0BDEF14F0C5EF14F0000E2F6E000E32
:10298000306E000E316E000E326E000E3314376E54
:10299000000E3414386E800E3514396E7F0E3614E6
:1029A0003A6E3750381039103A10D8A4DAEF14F0D4
:1029B000DCEF14F0E4EF14F0000E336E000E346E12
:1029C000000E356E000E366E32AEE9EF14F0EBEF0E
:1029D00014F0F4EF14F02F6C301ED8B0302A311EF2
:1029E000D8B0312A800E325636AEF9EF14F0FBEF34
:1029F00014F004EF15F0336C341ED8B0342A351EB1
:102A0000D8B0352A800E3656000E2F1A000E301A16
:102A1000000E311A800E321A000E331A000E341ACC
:102A2000000E351A800E361A33502F5C3450305851
:102A30003550315836503258D8B021EF15F023EFC9
:102A400015F026EF15F0D89027EF15F0D88012007A
:102A5000ABC00BF0ACC00CF0ADC00DF0AEC00EF0D2
:102A600001C00BF002C00CF003C00DF004C00EF06A
:102A70000BC005F00CC006F00DC007F00EC008F04A
:102A8000180E48EF15F0D89008320732063205329A
:102A9000E82E43EF15F00550096E0A6A09500A1036
:102AA000D8A455EF15F057EF15F077EF15F0D89043
:102AB0000B34056E0C34066E0D34076E0E34086E42
:102AC0000550061007100810D8A469EF15F06BEF39
:102AD00015F071EF15F0000E026E020E016EA6EFFA
:102AE00015F0000E026E030E016EA6EF15F0092818
:102AF0000A10D8A47EEF15F080EF15F0A2EF15F0C4
:102B00000BC005F00CC006F00DC007F00EC008F0B9
:102B1000090ED8900536063607360836E82E89EFB6
:102B200015F00550061007100810D8B49AEF15F0EC
:102B30009DEF15F0010E9EEF15F0000E016E026A7A
:102B4000A6EF15F0000E026E040E016E1200045086
:102B50000510D8B4AEEF15F0B0EF15F0B9EF15F0E1
:102B600004500510D8A4B7EF15F0B9EF15F0BEEF7B
:102B700015F0025019EC19F00BEF16F020EE09F0E9
:102B80000450D9260550DA22DE50DE10D8B4CBEF3F
:102B900015F0CDEF15F0E8EF15F020EE09F0045038
:102BA000D9260550DA2210EE03F00450E126055034
:102BB000E222DE50E65CE650800A0A6EDE50800AB1
:102BC0000A58D8B0E6EF15F0E8EF15F00BEF16F065
:102BD00020EE03F00450D9260550DA22DECF06F0AD
:102BE000DDCF07F004C0D9FF05C0DAFFDECF08F063
:102BF000DDCF09F006500824D96E07500920DA6E9F
:102C000002C0DFFF20EE03F00450D9260550DA227F
:102C1000DE2A000EDD221200000E0114096E000EE5
:102C200002140A6E800E03140B6E7F0E04140C6ED9
:102C300009500A100B100C10D8A421EF16F023EF46
:102C400016F02BEF16F0000E016E000E026E000E55
:102C5000036E000E046E000E0514096E000E0614BD
:102C60000A6E800E07140B6E7F0E08140C6E09504E
:102C70000A100B100C10D8A440EF16F042EF16F01B
:102C80004AEF16F0000E056E000E066E000E076E7F
:102C9000000E086E055001180FE1065002180CE1F5
:102CA0000750031809E108500418D8B45AEF16F079
:102CB0005CEF16F05FEF16F0D89060EF16F0D8805A
:102CC0001200000E096E000E0A6E000E0B6E000E52
:102CD0000C6E0550061007100810D8B472EF16F0ED
:102CE00074EF16F0AAEF16F0010E0D6E7EEF16F0DF
:102CF000D89005360636073608360D2A08AE83EF1B
:102D000016F085EF16F078EF16F0D89009360A36EF
:102D10000B360C360550015C06500258075003581C
:102D200008500458D8A097EF16F099EF16F0A2EFCC
:102D300016F00550015E0650025A0750035A08501B
:102D4000045A0980D89008320732063205320D2E17
:102D500085EF16F009C001F00AC002F00BC003F0C5
:102D60000CC004F0120017BEB8EF16F0BAEF16F060
:102D7000C0EF16F016C01BF017C01CF0C4EF16F021
:102D8000000E1C6E000E1B6E000E1A6E000E196EE9
:102D9000D6EF16F0000E036E200E026E12C004F085
:102DA00013C005F0A7EC15F0194A1A2A1B50195C3C
:102DB0001A50800A186E1C50800A1858D8A0E3EFE9
:102DC00016F0E5EF16F0CAEF16F014C00BF015C0C0
:102DD0000CF012C00DF013C00EF066EC18F01200EB
:102DE00004BEFFEF16F004500310021006E10104C8
:102DF000D8B0FDEF16F0FFEF16F01AEF17F001C094
:102E000005F002C006F003C007F004C008F0051E7C
:102E1000061E071E081E052A000E0622072208228B
:102E200005C001F006C002F007C003F008C004F0BE
:102E300022EF17F001C001F002C002F003C003F05E
:102E400004C004F01200949C0F015D9D948E5D9F60
:102E5000240EAC6E900EAB6E080EB86E000E016EB6
:102E6000120E026E7A0E036E000E046E0EC005F096
:102E70000FC006F010C007F011C008F061EC16F0AA
:102E8000030E48EF17F0D8900432033202320132B9
:102E9000E82E43EF17F0FF0E0124126EFF0E022002
:102EA000136E12C0AFFF1350B06E12006CEF17F02C
:102EB00002C0F6FF03C0F7FFF86A070EF76403D0FD
:102EC0000800F55005D0F6CFE1FFF7CFE2FFE7505D
:102ED00024EC19F0024A032A02C0F6FF03C0F7FFF0
:102EE000F86A070EF76403D00800F55005D0F6CF56
:102EF000E1FFF7CFE2FFE7500009D8A482EF17F017
:102F000084EF17F058EF17F01200960E00019A6F39
:102F1000000E9B6F92C09CF093C09DF0000EA06FBE
:102F2000000E9F6F000EA66F000EA56F9C0E8C6F9B
:102F3000000E8D6F94C08EF095C08FF09A0E906F3A
:102F4000000E916FAEEC17F000019F519225D96EE3
:102F5000A0519321DA6E000EDF6E12008EC05BF07E
:102F60008FC05CF0C2EF17F08CC047F08DC048F006
:102F70005B0E496E000E4A6E90C04BF091C04CF053
:102F80005DEC0FF05BC0F6FF5CC0F7FF0800F5508A
:102F90000009D8A4CEEF17F0D0EF17F0B4EF17F078
:102FA000000E00018D6F000E8C6F120003C009F03F
:102FB00004C00AF001C007F002C008F0F0EF17F0FB
:102FC00009C0D9FF0AC0DAFFDF500B6E094A0A2A8E
:102FD00007C0D9FF08C0DAFF0BC0DFFF074A082A85
:102FE0000506D8A00606052806E10628D8A4FBEFAA
:102FF00017F0FDEF17F0E0EF17F01200000E331A94
:10300000000E341A000E351A800E361A2FC001F049
:1030100030C002F031C003F032C004F033C005F01C
:1030200034C006F035C007F036C008F01BEC09F0DC
:1030300001C02FF002C030F003C031F004C032F004
:103040001200010E056E200E01180210D8B42BEFED
:1030500018F02DEF18F040EF18F0F70E0124036E72
:10306000FF0E0220046E045009E1050E035CD8A097
:103070003CEF18F03EEF18F040EF18F0000E056E30
:1030800005C001F0026A12009A0EF66E320EF76E5B
:10309000000EF86E00EEC7F010EE10F00900F5CF4C
:1030A000EEFFE550E150FAE101EE00F0500EEE6A5D
:1030B000E806FDE100EEA7F0200EEE6AE806FDE16D
:1030C0005F6A000EF86E0001CBEF12F0000E116E79
:1030D000000E106E77EF18F00FC002F0036A0DC0FB
:1030E00004F00EC005F0A7EC15F0104A112A10509C
:1030F0000B24D96E11500C20DA6EDF500F6E0F507A
:10310000D8A485EF18F087EF18F06CEF18F01200D4
:1031100003C005F004C006F001C007F002C008F0CB
:1031200005C0F6FF06C0F7FF054A062A07C0D9FF0B
:1031300008C0DAFF074A082A0800F5CFDFFFDF5092
:10314000D8A4A5EF18F0A7EF18F090EF18F0120030
:10315000076E07502FEC19F05CEC19F05AEC19F0DF
:103160003AEC19F0E806D8B4B8EF18F0BAEF18F056
:10317000B0EF18F05EEC19F0C450066E056AC3504B
:103180000524036E000E0620046E1200015002108A
:1031900003100410D8B4CFEF18F0D1EF18F0D9EF26
:1031A00018F0000E011A000E021A000E031A800E0B
:1031B000041A01C001F002C002F003C003F004C011
:1031C00004F01200D00E0124036EFF0E0220046EE4
:1031D00004500AE10A0E035CD8A0F1EF18F0F4EFF6
:1031E00018F0010EF5EF18F0000E016E026A1200E1
:1031F00001500302F3CF05F0F4CF06F001500402B2
:10320000F350062602500302F350062605C001F0D3
:1032100006C002F01200F30EC116FC0EC116C08EDD
:10322000C050F80B0209C06EC050C70B1009C06E29
:103230001200016EACA21FEF19F021EF19F01AEF86
:1032400019F001C0ADFF1200016EACA22AEF19F017
:103250002CEF19F025EF19F001C0ADFF1200026E3E
:1032600002C001F001460146C2500118830B01184B
:10327000C26E1200C2B23FEF19F042EF19F0010E18
:1032800043EF19F0000E1200D3508F0B6009D36E7C
:10329000D350FC0B0209D36E120031323341343566
:1032A0003642373839432A3023440F015B815F911E
:1032B00096901200C2821200C2801200C2901200C8
:020000040020DA
:08000000FFFFFFFFFFFFFFFF00
:020000040030CA
:0E00000000285E3CFFD185FF0FC00FE00F40CF
:00000001FF
