:040000003BEF00F0E2
:100008005F82F2A80AEF00F00CEF00F017EF00F0A3
:10001800F2A211EF00F013EF00F017EF00F0000E5E
:100028000001646FF292F0A61CEF00F01EEF00F0E2
:1000380028EF00F0F0A023EF00F025EF00F028EF04
:1000480000F000016407F090F0A82DEF00F02FEF0A
:1000580000F039EF00F0F0A234EF00F036EF00F0D6
:1000680039EF00F00001642BF0925F92110047EF26
:020078000BF08B
:1008000000436F756E7465723A20202020202530D9
:10081000337500436F756E7465723A2025303375F9
:100820000D0A00003FC0D9FF40C0DAFFDECFF6FF5F
:10083000DDCFF7FF0800F550250AD8A422EF04F019
:1008400024EF04F057EF05F03FC0D9FF40C0DAFFB6
:10085000DE2A000EDD22000E0001616F000E606FC7
:1008600060C05DF062696369000E506E000E4F6EED
:1008700064EF04F05D823FC0D9FF40C0DAFFDE2A9A
:10088000000EDD2264EF04F0000E506E010E4F6E7C
:1008900064EF04F03FC0D9FF40C0DAFFDECFF6FFBF
:1008A000DDCFF7FF0800F550436E446A4450000A5C
:1008B000D8B45DEF04F044EF04F04350300AD8B4EC
:1008C0003AEF04F044EF04F04F505010D8B46BEFFF
:1008D00004F06DEF04F04AEF04F03FC0D9FF40C0D0
:1008E000DAFFDECFF6FFDDCFF7FF0800F5502A0A6A
:1008F000D8A47DEF04F07FEF04F0A9EF04F03FC02F
:10090000D9FF40C0DAFFDE2A000EDD2241C0D9FF48
:1009100042C0DAFFDFCF43F0020EDE26DFCF44F025
:10092000000EDD2243C0D9FF44C0DAFFDECF60F005
:10093000DDCF61F0000161BFA2EF04F0A0EF04F091
:10094000DCEF04F05D80606D611FD8B0612BDCEFDF
:1009500004F03FC0D9FF40C0DAFFDECF07F0DDCFA3
:1009600008F068EC06F007C060F008C061F0C0EF66
:1009700004F03FC0D9FF40C0DAFFDE2A000EDD22BE
:100980003FC0D9FF40C0DAFFDECFF6FFDDCFF7FF73
:100990000800F5CF43F0D00E4324446E456AFF0EA5
:1009A0004522455009E10A0E445CD8A0DAEF04F074
:1009B000DCEF04F0B9EF04F03FC0D9FF40C0DAFF2C
:1009C000DECF51F0DDCF52F051C0F6FF52C0F7FF3D
:1009D0000800F550750AD8A4F0EF04F0F2EF04F027
:1009E0004EEF05F041C0D9FF42C0DAFFDFCF43F040
:1009F000020EDE26DFCF44F0000EDD2243C0D9FF19
:100A000044C0DAFFDECF45F0DDCF46F045C047F009
:100A100046C048F0496A4A6A4B6A4C6A4D6A4E6A57
:100A2000010E5124436E000E5220446E3FC0D9FF88
:100A300040C0DAFF43C0DEFF44C0DDFF38EF05F001
:100A40003DC01DF03EC01EF047C01FF048C020F062
:100A500049C021F04AC022F04BC023F04CC024F022
:100A60004DC025F04EC026F06CEC05F06BEF05F0A4
:100A700051C0F6FF52C0F7FF0800F550436E446ABC
:100A80004450000AD8B447EF05F04EEF05F043504C
:100A9000750AD8B420EF05F04EEF05F03FC0D9FF3E
:100AA00040C0DAFFDE2A000EDD226BEF05F03FC00A
:100AB000D9FF40C0DAFFDECFF6FFDDCFF7FF080039
:100AC000F550026E036A3DC004F03EC005F05EECD6
:100AD00008F04EEF05F01200000163BF72EF05F061
:100AE00074EF05F075EF05F05D9263BF82EF05F0DE
:100AF000635106E16205D8B080EF05F082EF05F0A2
:100B000088EF05F0000E306E010E2F6E8CEF05F0B1
:100B100062C02FF063C030F060C031F061C032F0CD
:100B20001FC033F020C034F021C035F022C036F0B1
:100B300023C037F024C038F025C039F026C03AF081
:100B4000000E3C6E1F0E3B6E000E846F1EEF06F013
:100B50003B06D8A03C06650E3B24D96E000E3C2017
:100B6000DA6E33C001F034C002F035C003F036C095
:100B700004F037C005F038C006F039C007F03AC0BD
:100B800008F00A0E096E000E0A6E000E0B6E000EC3
:100B90000C6E000E0D6E000E0E6E000E0F6E000E2F
:100BA000106EF6EC07F001C027F002C028F003C079
:100BB00029F004C02AF005C02BF006C02CF007C0B5
:100BC0002DF008C02EF02750300FDF6E2F06D8A072
:100BD00030063106D8A0320633C001F034C002F02E
:100BE00035C003F036C004F037C005F038C006F059
:100BF00039C007F03AC008F00A0E096E000E0A6EFE
:100C0000000E0B6E000E0C6E000E0D6E000E0E6EC2
:100C1000000E0F6E000E106E0DEC07F001C033F0E9
:100C200002C034F003C035F004C036F005C037F020
:100C300006C038F007C039F008C03AF03B503C100D
:100C4000D8B425EF06F027EF06F057EF06F0335043
:100C50003410351036103710381039103A10D8A427
:100C600034EF06F036EF06F0A8EF05F030BE43EFA4
:100C700006F0305006E12F04D8B041EF06F043EF04
:100C800006F0A8EF05F032BE4EEF06F0325008E154
:100C90003104D8A04EEF06F050EF06F057EF06F003
:100CA0005DB255EF06F057EF06F0A8EF05F01DC056
:100CB00012F01EC013F0650E3B24146E000E3C2093
:100CC000156E31C016F032C017F01BEC09F012009F
:100CD000000E0F6E000E0E6E000E0D6E000E0C6EEE
:100CE00074EF06F0074A082A07C0F6FF08C0F7FFAE
:100CF0000800F550200AD8B480EF06F082EF06F025
:100D000072EF06F007C0F6FF08C0F7FF0800F5CF46
:100D100009F0F70E09240A6E0B6AFF0E0B220B5026
:100D200009E1050E0A5CD8A098EF06F09AEF06F0EC
:100D300072EF06F0A4EF06F0000E0D6E010E0C6EC1
:100D4000074A082AD9EF06F007C0F6FF08C0F7FFE8
:100D50000800F550096E0A6A0A50000AD8B4B3EFC9
:100D600006F0D9EF06F009502B0AD8B4A0EF06F030
:100D7000060AD8B49CEF06F0D9EF06F00EC001F0D9
:100D80000FC002F0000E046E0A0E036EB0EC0BF002
:100D900007C0F6FF08C0F7FF0800F550015E000E1F
:100DA000025A300E01240E6E000E02200F6EA0EFCC
:100DB00006F007C0F6FF08C0F7FF0800F5CF09F0FE
:100DC000D00E09240A6E0B6AFF0E0B220B5009E1AC
:100DD0000A0E0A5CD8A0EFEF06F0F1EF06F0BEEFC6
:100DE00006F00C500D10D8A4F8EF06F0FAEF06F05C
:100DF00008EF07F00EC009F00FC00AF0091E0A1E26
:100E0000094A0A2A09C007F00AC008F00CEF07F0E7
:100E10000EC007F00FC008F0120020EE11F0070E10
:100E2000DE6AE806FDE209500A100B100C100D10E6
:100E30000E100F101010D8B420EF07F022EF07F0BB
:100E400074EF07F0010E196E30EF07F0D8900936F5
:100E50000A360B360C360D360E360F361036192A7A
:100E600010AE35EF07F037EF07F026EF07F0D89018
:100E7000113612361336143615361636173618361E
:100E80000950015C0A5002580B5003580C5004588A
:100E90000D5005580E5006580F500758105008585E
:100EA000D8A055EF07F057EF07F068EF07F00950AB
:100EB000015E0A50025A0B50035A0C50045A0D504E
:100EC000055A0E50065A0F50075A1050085A1180F2
:100ED000D89010320F320E320D320C320B320A32F1
:100EE0000932192E37EF07F011C001F012C002F0DD
:100EF00013C003F014C004F015C005F016C006F0CE
:100F000017C007F018C008F01200FDEC0BF0E9EC78
:100F10000BF0800E0E6E250E0F6E000E106E000E82
:100F2000116EFEEC09F0F3EC0BF015EC0CF0C2ECDA
:100F300009F00EEC0CF0010E046E010E31EC0AF01B
:100F4000850E0001996F000E9A6F010E9B6F080EBF
:100F50009C6F64C09DF09E6B92EC0AF0850E056E4E
:100F6000000E066E27EC0BF0850E0001996F000E47
:100F70009A6F130E9B6F080E9C6F64C09DF09E6B62
:100F800092EC0AF0850E026E000E036E82EC0BF0FE
:100F900064C001F0026A000E046E0A0E036EC3EC18
:100FA00008F001500210D8A4D8EF07F0DAEF07F0EC
:100FB000E6EF07F000016451D8B4E1EF07F0E3EF8A
:100FC00007F0E6EF07F08D84E7EF07F08D94030E4E
:100FD0005C6E8A0E5B6E560EE82EFED75B2EFCD73B
:100FE0005C2EFAD79BEF07F03BEF00F009500A1098
:100FF0000B100C100D100E100F101010D8B403EFC2
:1010000008F005EF08F04DEF08F0010E116E13EF38
:1010100008F0D89009360A360B360C360D360E36E7
:101020000F361036112A10AE18EF08F01AEF08F03C
:1010300009EF08F00950015C0A5002580B500358A0
:101040000C5004580D5005580E5006580F500758B4
:1010500010500858D8A02FEF08F031EF08F041EFFA
:1010600008F00950015E0A50025A0B50035A0C5006
:10107000045A0D50055A0E50065A0F50075A105078
:10108000085AD89010320F320E320D320C320B3219
:101090000A320932112E1AEF08F001C001F002C025
:1010A00002F003C003F004C004F005C005F006C060
:1010B00006F007C007F008C008F012000450051041
:1010C000D8B465EF08F067EF08F070EF08F004504F
:1010D0000510D8A46EEF08F070EF08F075EF08F077
:1010E0000250D3EC0BF0C2EF08F020EE09F00450F0
:1010F000D9260550DA22DE50DE10D8B482EF08F08F
:1011000084EF08F09FEF08F020EE09F00450D92694
:101110000550DA2210EE03F00450E1260550E222D9
:10112000DE50E65CE650800A0A6EDE50800A0A58FD
:10113000D8B09DEF08F09FEF08F0C2EF08F020EE66
:1011400003F00450D9260550DA22DECF06F0DDCFB9
:1011500007F004C0D9FF05C0DAFFDECF08F0DDCF0D
:1011600009F006500824D96E07500920DA6E02C033
:10117000DFFF20EE03F00450D9260550DA22DE2AE4
:10118000000EDD221200000E066E02BECCEF08F04B
:10119000CAEF08F0D2EF08F0016C021ED8B0022AA4
:1011A000010E066E04BED9EF08F0D7EF08F0DDEFB0
:1011B00008F0036C041ED8B0042A03500410D8B4FD
:1011C000E4EF08F0E6EF08F00AEF09F0010E056E13
:1011D000EEEF08F0D89003360436052A04AEF3EF9C
:1011E00008F0F5EF08F0EAEF08F00350015C045056
:1011F0000258D8A0FEEF08F000EF09F004EF09F064
:101200000350015E0450025AD89004320332052E76
:10121000F5EF08F00650D8B410EF09F012EF09F01E
:1012200016EF09F0016C021ED8B0022A01C001F0CD
:1012300002C002F012005DA020EF09F022EF09F0D9
:101240002CEF09F014C00BF015C00CF012C00DF01B
:1012500013C00EF005EC0BF017BE31EF09F033EFC1
:1012600009F039EF09F016C01BF017C01CF03DEF74
:1012700009F0000E1C6E000E1B6E000E1A6E000EA2
:10128000196E4FEF09F0000E036E200E026E12C0B1
:1012900004F013C005F05EEC08F0194A1A2A1B503E
:1012A000195C1A50800A186E1C50800A1858D8A071
:1012B0005CEF09F05EEF09F043EF09F05DB063EF1A
:1012C00009F065EF09F06FEF09F014C00BF015C0DD
:1012D0000CF012C00DF013C00EF005EC0BF0120074
:1012E000000E096E000E0A6E000E0B6E000E0C6EE4
:1012F0000550061007100810D8B481EF09F083EFED
:1013000009F0B9EF09F0010E0D6E8DEF09F0D890DC
:1013100005360636073608360D2A08AE92EF09F074
:1013200094EF09F087EF09F0D89009360A360B36AA
:101330000C360550015C06500258075003580850FF
:101340000458D8A0A6EF09F0A8EF09F0B1EF09F012
:101350000550015E0650025A0750035A0850045ABD
:101360000980D89008320732063205320D2E94EFEC
:1013700009F009C001F00AC002F00BC003F00CC074
:1013800004F012000F0E9516F30E9516000E64EC85
:101390000AF0340E046EF20EE82EFED7042EFCD7AF
:1013A000030EC3EC0BF00D0E046EFC0EE82EFED700
:1013B000042EFCD7030EC3EC0BF01D0E046E910E31
:1013C000E82EFED7042EFCD700F0030EC3EC0BF082
:1013D000020EC3EC0BF0020EC3EC0BF0080EC3ECD4
:1013E0000BF0000EC3EC0BF00C0EC3EC0BF0000E78
:1013F000C3EC0BF0060EC3EC0BF01200949C0F0133
:101400005D9D948E5D9F240EAC6E900EAB6E080EAB
:10141000B86E000E016E120E026E7A0E036E000E92
:10142000046E0EC005F00FC006F010C007F011C02A
:1014300008F070EC09F0030E23EF0AF0D8900432A4
:10144000033202320132E82E1EEF0AF0FF0E0124B1
:10145000126EFF0E0220136E12C0AFFF1350B06E5B
:101460001200056E0504D8A438EF0AF03AEF0AF02E
:101470004BEF0AF004507F0F086E08380F0B066E12
:1014800008500F0B076E0650C3EC0BF00750C3EC6F
:101490000BF063EF0AF0020E0518D8A452EF0AF021
:1014A00054EF0AF063EF0AF00450BF0F086E0838DB
:1014B0000F0B066E08500F0B076E0650C3EC0BF0B7
:1014C0000750C3EC0BF01200016E01A06AEF0AF0A6
:1014D0006CEF0AF06FEF0AF08C8870EF0AF08C98CE
:1014E00001A275EF0AF077EF0AF07AEF0AF08C8A22
:1014F0007BEF0AF08C9A01A480EF0AF082EF0AF0E9
:1015000085EF0AF08C8C86EF0AF08C9C01A68BEF9D
:101510000AF08DEF0AF090EF0AF08C8E91EF0AF04E
:101520008C9E12009D0E00019F6F000EA06F99C04F
:10153000A1F09AC0A2F0000EA56F000EA46F000EDD
:10154000AB6F000EAA6FA10E536E000E546E9BC0BF
:1015500055F09CC056F09F0E576E000E586EBBECB7
:101560000AF00001A4519925D96EA5519A21DA6E8D
:10157000000EDF6E120055C059F056C05AF0CFEF82
:101580000AF053C03DF054C03EF0590E3F6E000EBD
:10159000406E57C041F058C042F012EC04F059C000
:1015A000F6FF5AC0F7FF0800F5500009D8A4DBEF9A
:1015B0000AF0DDEF0AF0C1EF0AF0000E546E000EE3
:1015C000536E1200010E056E200E01180210D8B4E1
:1015D000ECEF0AF0EEEF0AF001EF0BF0F70E01244A
:1015E000036EFF0E0220046E045009E1050E035C39
:1015F000D8A0FDEF0AF0FFEF0AF001EF0BF0000EAC
:10160000056E05C001F0026A1200000E116E000E98
:10161000106E16EF0BF00FC002F0036A0DC004F05D
:101620000EC005F05EEC08F0104A112A10500B2491
:10163000D96E11500C20DA6EDF500F6E0F50D8A407
:1016400024EF0BF026EF0BF00BEF0BF01200000E67
:10165000086E000E076E38EF0BF007500524D96EA8
:1016600008500620DA6EDF5066EC0BF0074A082AB5
:1016700007500524D96E08500620DA6EDF50D8A432
:1016800044EF0BF046EF0BF02DEF0BF012000C0EB9
:10169000F66E180EF76E000EF86E00EEACF010EE5F
:1016A00010F00900F5CFEEFFE550E150FAE100EE51
:1016B00060F0390EEE6AE806FDE15E6A5D6A5F90F1
:1016C0005F92000EF86E000185EF07F0046E045083
:1016D0000F0B026E0450F00B036E838403380F0B64
:1016E00064EC0AF083861A0EE82EFED700D08396AB
:1016F000025064EC0AF083861A0EE82EFED700D062
:10170000839612008DEF0BF002C0D9FF03C0DAFF01
:10171000DF50DEEC0BF0024A032A02C0D9FF03C0FF
:10172000DAFFDF50D8A497EF0BF099EF0BF084EFBE
:101730000BF01200D00E0124036EFF0E0220046E87
:1017400004500AE10A0E035CD8A0A9EF0BF0ACEF3D
:101750000BF0010EADEF0BF0000E016E026A1200ED
:1017600001500302F3CF05F0F4CF06F0015004025C
:10177000F350062602500302F350062605C001F07E
:1017800006C002F01200036E8394035064EC0AF06A
:1017900083860B0E026E620EE82EFED7022EFCD759
:1017A00000D083961200016EACA2D9EF0BF0DBEFF4
:1017B0000BF0D4EF0BF001C0ADFF1200016EACA234
:1017C000E4EF0BF0E6EF0BF0DFEF0BF001C0ADFF45
:1017D00012000F015F919690000E5E6F5C919380F6
:1017E0005F9596941200F288F292F19CF086F09048
:1017F000F19AF088F092F1981200D3508F0B6009A3
:10180000D36ED350FC0B0209D36E12003132334138
:1018100034353642373839432A302344000EC3EC7E
:101820000BF0010EC3EC0BF01200D09EF28E1200F2
:020000040020DA
:08000000FFFFFFFFFFFFFFFF00
:020000040030CA
:0E00000000285E3CFFD185FF0FC00FE00F40CF
:00000001FF
