:040000008BEF00F092
:100008005B82E9CF77F0EACF78F0E1CF79F0E2CF01
:100018007AF0D9CF7BF0DACF7CF0F3CF7DF0F4CF54
:100028007EF0F6CF7FF0F7CF80F0F8CF81F0F5CFF4
:1000380082F0F2AA22EF00F024EF00F071EF00F056
:10004800F2A429EF00F02BEF00F071EF00F00B0E97
:10005800D76EDC0ED66EF2940001DA2B3B0EDA6511
:1000680038EF00F03AEF00F052EF00F0000EDA6FD0
:10007800DB2B3B0EDB6543EF00F045EF00F052EF62
:1000880000F0000EDB6FDC2B170EDC654EEF00F086
:1000980050EF00F052EF00F0000EDC6F010E046E1E
:1000A800010EA8EC0EF0200E0001606F010E616FCA
:1000B800010E626F080E636FDCC064F0656BDBC015
:1000C80066F0676BDAC068F0696B8BEC0FF0200E96
:1000D800056E010E066E32EC0EF082C0F5FF81C08F
:1000E800F8FF80C0F7FF7FC0F6FF7EC0F4FF7DC039
:1000F800F3FF7CC0DAFF7BC0D9FF7AC0E2FF79C08A
:10010800E1FF78C0EAFF77C0E9FF5B92110023EFB7
:0201180010F0E5
:100800000054696D65723A2020253032753A2530E2
:0D08100032753A253032750020002A0000B4
:10081E00C1C0D9FFC2C0DAFFDECFF6FFDDCFF7FFD2
:10082E000800F550250AD8A41FEF04F021EF04F0BC
:10083E0059EF05F0C1C0D9FFC2C0DAFFDE2A000EA3
:10084E00DD22000E0001D66F000ED56FD5C0D9F097
:10085E00D769D869000E0101416F000E406F63EF3A
:10086E0004F00001D983C1C0D9FFC2C0DAFFDE2A6D
:10087E00000EDD2263EF04F0000E416F010E406F9B
:10088E0063EF04F0C1C0D9FFC2C0DAFFDECFF6FFBE
:10089E00DDCFF7FF0800F550346F356B3551000A88
:1008AE00D8B45CEF04F043EF04F03451300AD8B4FE
:1008BE0038EF04F043EF04F0010140514111D8B478
:1008CE006BEF04F06DEF04F049EF04F0C1C0D9FFF7
:1008DE00C2C0DAFFDECFF6FFDDCFF7FF0800F5501E
:1008EE002A0AD8A47DEF04F07FEF04F0A9EF04F0FC
:1008FE00C1C0D9FFC2C0DAFFDE2A000EDD22C3C09E
:10090E00D9FFC4C0DAFFDFCF34F1020EDE26DFCF0F
:10091E0035F1000EDD2234C1D9FF35C1DAFFDECF4D
:10092E00D5F0DDCFD6F00001D6BFA2EF04F0A0EFD8
:10093E0004F0DDEF04F0D981D56DD61FD8B0D62BDB
:10094E00DDEF04F0C1C0D9FFC2C0DAFFDECF89F0FF
:10095E00DDCF8AF0C7EC08F089C0D5F08AC0D6F09A
:10096E00C0EF04F0C1C0D9FFC2C0DAFFDE2A000E0C
:10097E00DD22C1C0D9FFC2C0DAFFDECFF6FFDDCF68
:10098E00F7FF0800F5CF34F1D00E01013425356F95
:10099E00366BFF0E3623365109E10A0E355DD8A0AF
:1009AE00DBEF04F0DDEF04F0B9EF04F0C1C0D9FFC6
:1009BE00C2C0DAFFDECF42F1DDCF43F142C1F6FF16
:1009CE0043C1F7FF0800F550750AD8A4F1EF04F003
:1009DE00F3EF04F050EF05F0C3C0D9FFC4C0DAFF47
:1009EE00DFCF34F1020EDE26DFCF35F1000EDD2231
:1009FE0034C1D9FF35C1DAFFDECF36F1DDCF37F1A5
:100A0E0036C138F137C139F101013A6B3B6B3C6BA2
:100A1E003D6B3E6B3F6B010E4225346F000E432142
:100A2E00356FC1C0D9FFC2C0DAFF34C1DEFF35C198
:100A3E00DDFF3AEF05F0BFC09FF0C0C0A0F038C197
:100A4E00A1F039C1A2F03AC1A3F03BC1A4F03CC160
:100A5E00A5F03DC1A6F03EC1A7F03FC1A8F0CAEC7B
:100A6E0006F06EEF05F042C1F6FF43C1F7FF080036
:100A7E00F550346F356B3551000AD8B449EF05F097
:100A8E0050EF05F03451750AD8B422EF05F050EF4F
:100A9E0005F0C1C0D9FFC2C0DAFFDE2A000EDD228A
:100AAE006EEF05F0C1C0D9FFC2C0DAFFDECFF6FF90
:100ABE00DDCFF7FF0800F5500001846F856BBFC0D6
:100ACE0086F0C0C087F0D5EC0BF050EF05F01200A9
:100ADE003FC0D9FF40C0DAFFDECFF6FFDDCFF7FF14
:100AEE000800F550250AD8A47FEF05F081EF05F038
:100AFE00B5EF06F03FC0D9FF40C0DAFFDE2A000E88
:100B0E00DD22000E0001D66F000ED56FD5C0D9F0D4
:100B1E00D769D869000E506E000E4F6EC2EF05F009
:100B2E000001D9833FC0D9FF40C0DAFFDE2A000E94
:100B3E00DD22C2EF05F0000E506E010E4F6EC2EFB9
:100B4E0005F03FC0D9FF40C0DAFFDECFF6FFDDCFA4
:100B5E00F7FF0800F550436E446A4450000AD8B4BB
:100B6E00BBEF05F0A2EF05F04350300AD8B497EF73
:100B7E0005F0A2EF05F04F505010D8B4C9EF05F0B4
:100B8E00CBEF05F0A8EF05F03FC0D9FF40C0DAFF6C
:100B9E00DECFF6FFDDCFF7FF0800F5502A0AD8A406
:100BAE00DBEF05F0DDEF05F007EF06F03FC0D9FFF4
:100BBE0040C0DAFFDE2A000EDD2241C0D9FF42C05E
:100BCE00DAFFDFCF43F0020EDE26DFCF44F0000E59
:100BDE00DD2243C0D9FF44C0DAFFDECFD5F0DDCF32
:100BEE00D6F00001D6BF00EF06F0FEEF05F03AEFAB
:100BFE0006F0D981D56DD61FD8B0D62B3AEF06F0B8
:100C0E003FC0D9FF40C0DAFFDECF07F0DDCF08F0DE
:100C1E006EEC09F007C0D5F008C0D6F01EEF06F056
:100C2E003FC0D9FF40C0DAFFDE2A000EDD223FC0F2
:100C3E00D9FF40C0DAFFDECFF6FFDDCFF7FF0800A9
:100C4E00F5CF43F0D00E4324446E456AFF0E452285
:100C5E00455009E10A0E445CD8A038EF06F03AEF91
:100C6E0006F017EF06F03FC0D9FF40C0DAFFDECF27
:100C7E0051F0DDCF52F051C0F6FF52C0F7FF080021
:100C8E00F550750AD8A44EEF06F050EF06F0ACEF13
:100C9E0006F041C0D9FF42C0DAFFDFCF43F0020EAB
:100CAE00DE26DFCF44F0000EDD2243C0D9FF44C064
:100CBE00DAFFDECF45F0DDCF46F045C047F046C047
:100CCE0048F0496A4A6A4B6A4C6A4D6A4E6A010E8E
:100CDE005124436E000E5220446E3FC0D9FF40C0D7
:100CEE00DAFF43C0DEFF44C0DDFF96EF06F03DC0E5
:100CFE001DF03EC01EF047C01FF048C020F049C096
:100D0E0021F04AC022F04BC023F04CC024F04DC05D
:100D1E0025F04EC026F0C9EC07F0C9EF06F051C021
:100D2E00F6FF52C0F7FF0800F550436E446A445078
:100D3E00000AD8B4A5EF06F0ACEF06F04350750AE2
:100D4E00D8B47EEF06F0ACEF06F03FC0D9FF40C03E
:100D5E00DAFFDE2A000EDD22C9EF06F03FC0D9FF12
:100D6E0040C0DAFFDECFF6FFDDCFF7FF0800F5500B
:100D7E00026E036A3DC004F03EC005F03BEC0CF081
:100D8E00ACEF06F012000001D8BFD0EF06F0D2EFA4
:100D9E0006F0D3EF06F0D993D8BFE0EF06F0D851A6
:100DAE0006E1D705D8B0DEEF06F0E0EF06F0E6EF8D
:100DBE0006F0000EB26F010EB16FEAEF06F0D7C06B
:100DCE00B1F0D8C0B2F0D5C0B3F0D6C0B4F0A1C067
:100DDE00B5F0A2C0B6F0A3C0B7F0A4C0B8F0A5C0DD
:100DEE00B9F0A6C0BAF0A7C0BBF0A8C0BCF0000E08
:100DFE00BE6F1F0EBD6F000E01011F6F7EEF07F05D
:100E0E00BD07D8A0BE07000EBD25D96E010EBE21AE
:100E1E00DA6EB5C083F0B6C084F0B7C085F0B8C046
:100E2E0086F0B9C087F0BAC088F0BBC089F0BCC0EC
:100E3E008AF00A0E8B6F000E8C6F000E8D6F000EF7
:100E4E008E6F000E8F6F000E906F000E916F000E62
:100E5E00926F04EC0BF083C0A9F084C0AAF085C099
:100E6E00ABF086C0ACF087C0ADF088C0AEF089C0E4
:100E7E00AFF08AC0B0F00001A951300FDF6EB1079C
:100E8E00D8A0B207B307D8A0B407B5C083F0B6C0D8
:100E9E0084F0B7C085F0B8C086F0B9C087F0BAC08C
:100EAE0088F0BBC089F0BCC08AF00A0E8B6F000EB2
:100EBE008C6F000E8D6F000E8E6F000E8F6F000EFA
:100ECE00906F000E916F000E926F13EC0AF083C0BC
:100EDE00B5F084C0B6F085C0B7F086C0B8F087C054
:100EEE00B9F088C0BAF089C0BBF08AC0BCF000016E
:100EFE00BD51BE11D8B486EF07F088EF07F0B8EFFA
:100F0E0007F0B551B611B711B811B911BA11BB111D
:100F1E00BC11D8A495EF07F097EF07F007EF07F095
:100F2E00B2BFA4EF07F0B25106E1B105D8B0A2EFFF
:100F3E0007F0A4EF07F007EF07F0B4BFAFEF07F02D
:100F4E00B45108E1B305D8A0AFEF07F0B1EF07F049
:100F5E00B8EF07F0D9B3B6EF07F0B8EF07F007EF29
:100F6E0007F09FC094F0A0C095F0000EBD25966FBF
:100F7E00010EBE21976FB3C098F0B4C099F001EC8A
:100F8E000DF012000001D8BFCFEF07F0D1EF07F040
:100F9E00D2EF07F0D993D8BFDFEF07F0D85106E1B3
:100FAE00D705D8B0DDEF07F0DFEF07F0E5EF07F07C
:100FBE00000E306E010E2F6EE9EF07F0D7C02FF046
:100FCE00D8C030F0D5C031F0D6C032F01FC033F0EB
:100FDE0020C034F021C035F022C036F023C037F0E7
:100FEE0024C038F025C039F026C03AF0000E3C6E11
:100FFE001F0E3B6E000E01011F6F7CEF08F03B06CB
:10100E00D8A03C06000E3B24D96E010E3C20DA6EB1
:10101E0033C001F034C002F035C003F036C004F026
:10102E0037C005F038C006F039C007F03AC008F0F6
:10103E000A0E096E000E0A6E000E0B6E000E0C6E7E
:10104E00000E0D6E000E0E6E000E0F6E000E106E68
:10105E006DEC0BF001C027F002C028F003C029F0A0
:10106E0004C02AF005C02BF006C02CF007C02DF0EE
:10107E0008C02EF02750300FDF6E2F06D8A0300696
:10108E003106D8A0320633C001F034C002F035C0AC
:10109E0003F036C004F037C005F038C006F039C092
:1010AE0007F03AC008F00A0E096E000E0A6E000E26
:1010BE000B6E000E0C6E000E0D6E000E0E6E000E00
:1010CE000F6E000E106E8CEC0AF001C033F002C0F1
:1010DE0034F003C035F004C036F005C037F006C05A
:1010EE0038F007C039F008C03AF03B503C10D8B485
:1010FE0083EF08F085EF08F0B6EF08F033503410A8
:10110E00351036103710381039103A10D8A492EF27
:10111E0008F094EF08F006EF08F030BEA1EF08F0EB
:10112E00305006E12F04D8B09FEF08F0A1EF08F081
:10113E0006EF08F032BEACEF08F0325008E1310491
:10114E00D8A0ACEF08F0AEEF08F0B6EF08F0000153
:10115E00D9B3B4EF08F0B6EF08F006EF08F01DC0F3
:10116E0012F01EC013F0000E3B24146E010E3C2034
:10117E00156E31C016F032C017F059EC0DF012009A
:10118E00000E0001916F000E906F000E8F6F000E1B
:10119E008E6FD4EF08F0894B8A2B89C0F6FF8AC078
:1011AE00F7FF0800F550200AD8B4E0EF08F0E2EFA0
:1011BE0008F0D2EF08F089C0F6FF8AC0F7FF0800EA
:1011CE00F5CF8BF0F70E8B258C6F8D6BFF0E8D236D
:1011DE008D5109E1050E8C5DD8A0F8EF08F0FAEFFD
:1011EE0008F0D2EF08F004EF09F0000E8F6F010E39
:1011FE008E6F894B8A2B3AEF09F089C0F6FF8AC0B1
:10120E00F7FF0800F5508B6F8C6B8C51000AD8B429
:10121E0013EF09F03AEF09F08B512B0AD8B400EF17
:10122E0009F0060AD8B4FCEF08F03AEF09F090C0C6
:10123E0083F091C084F0000E866F0A0E856FD6EC97
:10124E0010F089C0F6FF8AC0F7FF0800F5500001C4
:10125E00835F000E845B300E8325906F000E842119
:10126E00916F00EF09F089C0F6FF8AC0F7FF080002
:10127E00F5CF8BF0D00E8B258C6F8D6BFF0E8D23E3
:10128E008D5109E10A0E8C5DD8A050EF09F052EF96
:10129E0009F01EEF09F08E518F11D8A459EF09F005
:1012AE005BEF09F069EF09F090C08BF091C08CF004
:1012BE008B1F8C1F8B4B8C2B8BC089F08CC08AF0B4
:1012CE006DEF09F090C089F091C08AF01200000E07
:1012DE000F6E000E0E6E000E0D6E000E0C6E7AEF7F
:1012EE0009F0074A082A07C0F6FF08C0F7FF0800F2
:1012FE00F550200AD8B486EF09F088EF09F078EFA0
:10130E0009F007C0F6FF08C0F7FF0800F5CF09F097
:10131E00F70E09240A6E0B6AFF0E0B220B5009E121
:10132E00050E0A5CD8A09EEF09F0A0EF09F078EF49
:10133E0009F0AAEF09F0000E0D6E010E0C6E074AB1
:10134E00082ADFEF09F007C0F6FF08C0F7FF080014
:10135E00F550096E0A6A0A50000AD8B4B9EF09F0BE
:10136E00DFEF09F009502B0AD8B4A6EF09F0060AF0
:10137E00D8B4A2EF09F0DFEF09F00EC001F00FC0F4
:10138E0002F0000E046E0A0E036EFDEC10F007C0A4
:10139E00F6FF08C0F7FF0800F550015E000E025A76
:1013AE00300E01240E6E000E02200F6EA6EF09F015
:1013BE0007C0F6FF08C0F7FF0800F5CF09F0D00E02
:1013CE0009240A6E0B6AFF0E0B220B5009E10A0E5E
:1013DE000A5CD8A0F5EF09F0F7EF09F0C4EF09F0B9
:1013EE000C500D10D8A4FEEF09F000EF0AF00EEF2E
:1013FE000AF00EC009F00FC00AF0091E0A1E094AB3
:10140E000A2A09C007F00AC008F012EF0AF00EC04F
:10141E0007F00FC008F0120020EE93F0070EDE6A00
:10142E00E806FDE200018B518C118D118E118F118A
:10143E00901191119211D8B427EF0AF029EF0AF00A
:10144E007BEF0AF0010E9B6F37EF0AF0D8908B37C7
:10145E008C378D378E378F379037913792379B2B4E
:10146E0092AF3CEF0AF03EEF0AF02DEF0AF0D89063
:10147E0093379437953796379737983799379A37F2
:10148E008B51835D8C5184598D5185598E5186595E
:10149E008F518759905188599151895992518A5932
:1014AE00D8A05CEF0AF05EEF0AF06FEF0AF08B51F6
:1014BE00835F8C51845B8D51855B8E51865B8F5122
:1014CE00875B9051885B9151895B92518A5B9381C6
:1014DE00D8909233913390338F338E338D338C3348
:1014EE008B339B2F3EEF0AF093C083F094C084F0B1
:1014FE0095C085F096C086F097C087F098C088F0AA
:10150E0099C089F09AC08AF0120020EE11F0070EF1
:10151E00DE6AE806FDE209500A100B100C100D10E1
:10152E000E100F101010D8B49FEF0AF0A1EF0AF0B2
:10153E00F3EF0AF0010E196EAFEF0AF0D8900936EC
:10154E000A360B360C360D360E360F361036192A75
:10155E0010AEB4EF0AF0B6EF0AF0A5EF0AF0D8908D
:10156E001136123613361436153616361736183619
:10157E000950015C0A5002580B5003580C50045885
:10158E000D5005580E5006580F5007581050085859
:10159E00D8A0D4EF0AF0D6EF0AF0E7EF0AF0095020
:1015AE00015E0A50025A0B50035A0C50045A0D5049
:1015BE00055A0E50065A0F50075A1050085A1180ED
:1015CE00D89010320F320E320D320C320B320A32EC
:1015DE000932192EB6EF0AF011C001F012C002F056
:1015EE0013C003F014C004F015C005F016C006F0C9
:1015FE0017C007F018C008F0120000018B518C11B3
:10160E008D118E118F11901191119211D8B412EF7C
:10161E000BF014EF0BF05CEF0BF0010E936F22EF5B
:10162E000BF0D8908B378C378D378E378F379037AE
:10163E0091379237932B92AF27EF0BF029EF0BF0E8
:10164E0018EF0BF08B51835D8C5184598D51855958
:10165E008E5186598F518759905188599151895978
:10166E0092518A59D8A03EEF0BF040EF0BF050EF9D
:10167E000BF08B51835F8C51845B8D51855B8E514A
:10168E00865B8F51875B9051885B9151895B92513C
:10169E008A5BD8909233913390338F338E338D3360
:1016AE008C338B33932F29EF0BF083C083F084C0E0
:1016BE0084F085C085F086C086F087C087F088C02C
:1016CE0088F089C089F08AC08AF0120009500A1089
:1016DE000B100C100D100E100F101010D8B47AEF56
:1016EE000BF07CEF0BF0C4EF0BF0010E116E8AEFD6
:1016FE000BF0D89009360A360B360C360D360E36F0
:10170E000F361036112A10AE8FEF0BF091EF0BF053
:10171E0080EF0BF00950015C0A5002580B50035831
:10172E000C5004580D5005580E5006580F500758BF
:10173E0010500858D8A0A6EF0BF0A8EF0BF0B8EF9A
:10174E000BF00950015E0A50025A0B50035A0C500E
:10175E00045A0D50055A0E50065A0F50075A105083
:10176E00085AD89010320F320E320D320C320B3224
:10177E000A320932112E91EF0BF001C001F002C0B6
:10178E0002F003C003F004C004F005C005F006C06B
:10179E0006F007C007F008C008F0120000018651DD
:1017AE008711D8B4DDEF0BF0DFEF0BF0E8EF0BF0A5
:1017BE0086518711D8A4E6EF0BF0E8EF0BF0EDEFB2
:1017CE000BF084512FEC11F03AEF0CF020EE09F0F3
:1017DE008651D9268751DA22DE50DE10D8B4FAEFC0
:1017EE000BF0FCEF0BF017EF0CF020EE09F086512A
:1017FE00D9268751DA2210EE03F08651E126875161
:10180E00E222DE50E65CE650800A8C6FDE50800AE3
:10181E008C59D8B015EF0CF017EF0CF03AEF0CF026
:10182E0020EE03F08651D9268751DA22DECF88F0DA
:10183E00DDCF89F086C0D9FF87C0DAFFDECF8AF010
:10184E00DDCF8BF088518A25D96E89518B21DA6EC6
:10185E0084C0DFFF20EE03F08651D9268751DA22AD
:10186E00DE2A000EDD22120004500510D8B442EF1D
:10187E000CF044EF0CF04DEF0CF004500510D8A412
:10188E004BEF0CF04DEF0CF052EF0CF0025046EC1B
:10189E0011F09FEF0CF020EE09F00450D926055000
:1018AE00DA22DE50DE10D8B45FEF0CF061EF0CF0F0
:1018BE007CEF0CF020EE09F00450D9260550DA2208
:1018CE0010EE03F00450E1260550E222DE50E65CF5
:1018DE00E650800A0A6EDE50800A0A58D8B07AEFB7
:1018EE000CF07CEF0CF09FEF0CF020EE03F00450A8
:1018FE00D9260550DA22DECF06F0DDCF07F004C080
:10190E00D9FF05C0DAFFDECF08F0DDCF09F00650B3
:10191E000824D96E07500920DA6E02C0DFFF20EED0
:10192E0003F00450D9260550DA22DE2A000EDD22FD
:10193E0012003BEC11F06CEC11F0010E0001866F01
:10194E00010E71EC0EF0200E01014C6F010E4D6F69
:10195E00010E4E6F080E4F6FDCC050F1516BDBC0A5
:10196E0052F1536BDAC054F1556B39EC0FF0200E77
:10197E000001876F010E886FB0EC0DF0010E0001B3
:10198E00866F020E71EC0EF0010E0101656F65C1DE
:10199E0086F0020E71EC0EF01A0E0001876F080E23
:1019AE00886FB0EC0DF0030E0101646F8A0E636F49
:1019BE00550EE82EFED7632FFCD7642FFAD700D032
:1019CE0065C186F0020E71EC0EF0180E0001876FE5
:1019DE00080E886FB0EC0DF00101652B110E6565D8
:1019EE00FBEF0CF0FDEF0CF0CEEF0CF0C5EF0CF0B2
:1019FE008BEF00F00001D9A107EF0DF009EF0DF00C
:101A0E0013EF0DF096C08DF097C08EF094C08FF04E
:101A1E0095C090F0DBEC0FF0000199BF19EF0DF0BF
:101A2E001BEF0DF021EF0DF098C09DF099C09EF0C8
:101A3E0025EF0DF0000E9E6F000E9D6F000E9C6F39
:101A4E00000E9B6F38EF0DF0000E856F200E846F29
:101A5E0094C086F095C087F0D5EC0BF000019B4B3F
:101A6E009C2B9D519B5D9C51800A9A6F9E51800AC2
:101A7E009A59D8A045EF0DF047EF0DF02BEF0DF072
:101A8E00D9B14CEF0DF04EEF0DF058EF0DF096C0B2
:101A9E008DF097C08EF094C08FF095C090F0DBEC77
:101AAE000FF012000001D9A15FEF0DF061EF0DF004
:101ABE006BEF0DF014C00BF015C00CF012C00DF052
:101ACE0013C00EF046EC10F017BE70EF0DF072EF73
:101ADE000DF078EF0DF016C01BF017C01CF07CEF68
:101AEE000DF0000E1C6E000E1B6E000E1A6E000E18
:101AFE00196E8EEF0DF0000E036E200E026E12C0E8
:101B0E0004F013C005F03BEC0CF0194A1A2A1B50D6
:101B1E00195C1A50800A186E1C50800A1858D8A0EA
:101B2E009BEF0DF09DEF0DF082EF0DF00001D9B19E
:101B3E00A3EF0DF0A5EF0DF0AFEF0DF014C00BF00D
:101B4E0015C00CF012C00DF013C00EF046EC10F0E4
:101B5E001200000E00018C6F000E8B6FD3EF0DF094
:101B6E0000018B518725896F8C5188218A6F89C01E
:101B7E00F6FF8AC0F7FFF86A070EF76403D0080075
:101B8E00F55005D0F6CFE9FFF7CFEAFFEF5068EC3E
:101B9E0010F000018B4B8C2B8B518725896F8C514C
:101BAE0088218A6F89C0F6FF8AC0F7FFF86A070E90
:101BBE00F76403D00800F55005D0F6CFE9FFF7CF54
:101BCE00EAFFEF500009D8A4EFEF0DF0F1EF0DF0A2
:101BDE00B7EF0DF012000F0E9516F30E9516000EC0
:101BEE00DBEC0EF0340E0001866FF10EE82EFED700
:101BFE00862FFCD700D0030EEAEC10F00D0E00017C
:101C0E00866FFB0EE82EFED7862FFCD700D0030E74
:101C1E00EAEC10F01D0E0001866F910EE82EFED735
:101C2E00862FFCD7030EEAEC10F0020EEAEC10F051
:101C3E00020EEAEC10F0080EEAEC10F0000EEAECE0
:101C4E0010F00C0EEAEC10F0000EEAEC10F0060E9E
:101C5E00EAEC10F01200000E0A6E000E096E52EF42
:101C6E000EF009500524076E0A500620086E07C0B4
:101C7E00F6FF08C0F7FFF86A070EF76403D00800F6
:101C8E00F55005D0F6CFE9FFF7CFEAFFEF50A3EC02
:101C9E0010F0094A0A2A09500524076E0A50062038
:101CAE00086E07C0F6FF08C0F7FFF86A070EF76464
:101CBE0003D00800F55005D0F6CFE9FFF7CFEAFFC5
:101CCE00EF500009D8A46EEF0EF070EF0EF038EF63
:101CDE000EF012000001876F00018705D8A47AEF7D
:101CEE000EF07CEF0EF08EEF0EF086517F0F8A6FA6
:101CFE008A390F0B886F8A510F0B896F8851EAEC66
:101D0E0010F000018951EAEC10F0A7EF0EF0020E70
:101D1E008719D8A495EF0EF097EF0EF0A7EF0EF0FF
:101D2E008651BF0F8A6F8A390F0B886F8A510F0B3E
:101D3E00896F8851EAEC10F000018951EAEC10F03D
:101D4E001200056E0504D8A4AFEF0EF0B1EF0EF041
:101D5E00C2EF0EF004507F0F086E08380F0B066EA0
:101D6E0008500F0B076E065010EC11F0075010ECD8
:101D7E0011F0DAEF0EF0020E0518D8A4C9EF0EF02E
:101D8E00CBEF0EF0DAEF0EF00450BF0F086E0838EE
:101D9E000F0B066E08500F0B076E065010EC11F06D
:101DAE00075010EC11F012000001836F000183A1A7
:101DBE00E3EF0EF0E5EF0EF0E8EF0EF08C88E9EFB2
:101DCE000EF08C9883A3EEEF0EF0F0EF0EF0F3EF23
:101DDE000EF08C8AF4EF0EF08C9A83A5F9EF0EF0CC
:101DEE00FBEF0EF0FEEF0EF08C8CFFEF0EF08C9CE6
:101DFE0083A704EF0FF006EF0FF009EF0FF08C8EB4
:101E0E000AEF0FF08C9E1200016E01A011EF0FF081
:101E1E0013EF0FF016EF0FF08C8817EF0FF08C9872
:101E2E0001A21CEF0FF01EEF0FF021EF0FF08C8AC6
:101E3E0022EF0FF08C9A01A427EF0FF029EF0FF08D
:101E4E002CEF0FF08C8C2DEF0FF08C9C01A632EF47
:101E5E000FF034EF0FF037EF0FF08C8E38EF0FF0EE
:101E6E008C9E1200500E0101566F010E576F4CC121
:101E7E0058F14DC159F1000E5C6F000E5B6F000EF4
:101E8E00626F000E616F580E446F010E456F4EC1AA
:101E9E0046F14FC147F1560E486F010E496F62EC85
:101EAE000FF001015B514C25D96E5C514D21DA6E5C
:101EBE00000EDF6E120046C14AF147C14BF177EFBB
:101ECE000FF044C1BFF045C1C0F04A0E0001C16F12
:101EDE00010EC26F48C1C3F049C1C4F00FEC04F04B
:101EEE004AC1F6FF4BC1F7FF0800F5500009D8A410
:101EFE0083EF0FF085EF0FF068EF0FF0000E01018A
:101F0E00456F000E446F1200640E00016A6F000EE2
:101F1E006B6F60C06CF061C06DF0000E706F000EE4
:101F2E006F6F000E766F000E756F6C0E536E000E97
:101F3E00546E62C055F063C056F06A0E576E000EB6
:101F4E00586EB4EC0FF000016F516025D96E7051D0
:101F5E006121DA6E000EDF6E120055C059F056C0C8
:101F6E005AF0C8EF0FF053C03DF054C03EF0590E7A
:101F7E003F6E000E406E57C041F058C042F06FECFD
:101F8E0005F059C0F6FF5AC0F7FF0800F5500009DA
:101F9E00D8A4D4EF0FF0D6EF0FF0BAEF0FF0000E7B
:101FAE00546E000E536E1200000E0001936F000E61
:101FBE00926FEEEF0FF091C084F0856B8FC086F0BC
:101FCE0090C087F0D5EC0BF00001924B932B925101
:101FDE008D25D96E93518E21DA6EDF50916F91510E
:101FEE00D8A4FCEF0FF0FEEF0FF0E2EF0FF01200AF
:101FFE00010E0001876F200E83198411D8B40AEFE9
:10200E0010F00CEF10F01FEF10F0F70E8325856F18
:10201E00FF0E8421866F865109E1050E855DD8A0DD
:10202E001BEF10F01DEF10F01FEF10F0000E876F7A
:10203E0087C083F0846B1200C80EF66E220EF76E08
:10204E00000EF86E00EEC5F010EE10F00900F5CFA0
:10205E00EEFFE550E150FAE101EE00F0340EEE6ACB
:10206E00E806FDE100EED5F0080EEE6AE806FDE1A9
:10207E005B905B92000EF86E0001A0EF0CF0000E6C
:10208E00116E000E106E57EF10F00FC002F0036AC3
:10209E000DC004F00EC005F03BEC0CF0104A112AF6
:1020AE0010500B24D96E11500C20DA6EDF500F6ECB
:1020BE000F50D8A465EF10F067EF10F04CEF10F052
:1020CE0012000001866F000186510F0B846F86513E
:1020DE00F00B856F838485390F0BDBEC0EF0838656
:1020EE001A0EE82EFED700D0839600018451DBEC49
:1020FE000EF083861A0EE82EFED700D083961200BD
:10210E00200E01180210D8B48FEF10F091EF10F0DE
:10211E00A2EF10F0F70E0124036EFF0E0220046EE4
:10212E00045009E1050E035CD8A0A0EF10F0A2EF59
:10213E0010F0A2EF10F01200046E04500F0B026E9E
:10214E000450F00B036E838403380F0B0BEC0FF06F
:10215E0083861A0EE82EFED700D0839602500BEC23
:10216E000FF083861A0EE82EFED700D0839612004B
:10217E00D00E00018325856FFF0E8421866F865158
:10218E000AE10A0E855DD8A0CFEF10F0D2EF10F065
:10219E00010ED3EF10F0000E836F846B120000015E
:1021AE0083518503F3CF87F0F4CF88F083518603F4
:1021BE00F350882784518503F350882787C083F016
:1021CE0088C084F012000001856F83940001855150
:1021DE00DBEC0EF083860B0E0001846F620EE82E90
:1021EE00FED7842FFCD700F0839612000150030215
:1021FE00F3CF05F0F4CF06F001500402F35006269B
:10220E0002500302F350062605C001F006C002F08C
:10221E001200036E839403500BEC0FF083860B0EAB
:10222E00026E620EE82EFED7022EFCD700D08396E9
:10223E001200D59CD59AD596D550F80B0509D56EBA
:10224E000B0ED76EDC0ED66EF28AF294D58E12007D
:10225E000001836FACA236EF11F038EF11F031EFC1
:10226E0011F083C0ADFF12005BEC11F051EC11F0D8
:10227E00F2EC0DF020EC11F073EC11F01200016E87
:10228E00ACA24CEF11F04EEF11F047EF11F001C080
:10229E00ADFF1200000E0F015E6F5C9193805C9398
:1022AE0093825C9593841200D3508F0B6009D36E8A
:1022BE00D350FC0B0209D36E120031323341343548
:1022CE003642373839432A302344000EEAEC10F0F8
:1022DE00010EEAEC10F01200D09EF28EF28C12007B
:0222EE001200DC
:020000040020DA
:08000000FFFFFFFFFFFFFFFF00
:020000040030CA
:0E00000000285E3CFFD185FF0FC00FE00F40CF
:00000001FF
