:0400000046EF00F0D7
:100008001982F2A80AEF00F00CEF00F01AEF00F0E6
:10001800F2A211EF00F013EF00F01AEF00F0010E5A
:10002800186E000E176E000E166EF292F0A61FEFF5
:1000380000F021EF00F02FEF00F0F0A026EF00F025
:1000480028EF00F02FEF00F0000E186E010E176E6B
:10005800000E166EF090F0A834EF00F036EF00F0C6
:1000680044EF00F0F0A23BEF00F03DEF00F044EF6A
:1000780000F0000E186E000E176E010E166EF0924C
:1000880019921100BBEF00F0DFEC00F0F0EC00F08B
:10009800F6EC00F0D5EC00F01750D8B456EF00F0AD
:1000A80058EF00F084EF00F0000E146E080E146490
:1000B80060EF00F062EF00F064EF00F050EF00F046
:1000C80014C011F0800E126E000E136E112A70EF1C
:1000D80000F0133413321232112E6DEF00F012506B
:1000E8008C6E020E126E040E116EBA0EE82EFED73A
:1000F800112EFCD7122EFAD700D0142A5AEF00F08E
:100108001650D8B48AEF00F08CEF00F0B5EF00F08D
:10011800000E156E080E156494EF00F096EF00F0CF
:1001280098EF00F050EF00F015C011F0010E126EBC
:10013800112AA1EF00F0D8901236112E9FEF00F08F
:1001480012508C6E020E126E040E116EBA0EE82E4C
:10015800FED7112EFCD7122EFAD700D0152A8EEF13
:1001680000F0000E8C6E50EF00F046EF00F0D00E5D
:10017800F66E010EF76E000EF86E00EE01F010EE4E
:1001880010F00900F5CFEEFFE550E150FAE1186AEA
:10019800176A166A19901992000EF86E000148EF56
:1001A80000F0F288F292F19CF086F090F19AF088D3
:1001B800F092F1981200D3508F0B6009D36ED35090
:1001C800FC0B0209D36E120031323341343536420A
:1001D800373839432A302344000E0F015E6F000E72
:0C01E800956E1200D09EF28EF28C120078
:020000040020DA
:08000000FFFFFFFFFFFFFFFF00
:020000040030CA
:0E00000000285E3CFFD185FF0FC00FE00F40CF
:00000001FF
